:020000022000DC
:1060000000000120756302005D6302005F6302000F
:106010006163020063630200656302000000000028
:1060200000000000000000000000000067630200A4
:1060300069630200000000006B6302006D630200F0
:10604000818102006F630200C18502006F6302005C
:106050006F6302006F6302003D8402006F63020001
:106060006F6302006F6302004D0103006F63020063
:106070006F6302006F6302006F6302006F630200D0
:106080006F63020029F30300D91503006F63020058
:10609000F9F303006F630200F5B802006F630200BA
:1060A0006F6302006F6302006F6302006F630200A0
:1060B0006F6302006F630200000000000000000038
:1060C0006F6302006F6302006F6302006F63020080
:1060D0006F6302006F6302006F6302000000000044
:1060E00000000000000000000000000000000000B0
:1060F00000000000000000000000000000000000A0
:10610000000000000000000000000000000000008F
:10611000000000000000000000000000000000007F
:10612000000000000000000000000000000000006F
:10613000000000000000000000000000000000005F
:10614000000000000000000000000000000000004F
:10615000000000000000000000000000000000003F
:10616000000000000000000000000000000000002F
:10617000000000000000000000000000000000001F
:10618000000000000000000000000000000000000F
:1061900000000000000000000000000000000000FF
:1061A00000000000000000000000000000000000EF
:1061B00000000000000000000000000000000000DF
:1061C00000000000000000000000000000000000CF
:1061D00000000000000000000000000000000000BF
:1061E00000000000000000000000000000000000AF
:1061F000000000000000000000000000000000009F
:10620000354936480A1A02D0072291438D4634494F
:1062100034480A1A06D00722914381F309880222E2
:1062200082F3148830483149314A00F044F831484B
:106230003149324A00F03FF831483249324A00F0E1
:106240003AF832483249334A00F035F83248334997
:10625000334A00F030F833483349344A00F02BF821
:1062600033483449344A00F026F83448344900228F
:1062700000F02CF833483449002200F027F8334866
:106280003349091A082902DB002202604160314AC1
:1062900090471F481F49884205D00268043003B464
:1062A000904703BCF7E700208646EC46002000211B
:1062B000294A9047FEE7884207D0521A05D0037852
:1062C00001300B700131013AF9D17047884202D098
:1062D00002700130FAE770470000012000E0002062
:1062E000000001200000012034240400982A00202E
:1062F000DC2B0020D4630200D46302005AFE0300AA
:1063000034240400982A0020982A00203400040035
:10631000340004003400040034000400340004009D
:10632000340004003400040034000400322404006B
:1063300078250400DC2B0020DC2B0020DC2B002047
:10634000905B0020905B0020905B0020905B002021
:10635000907B00209D63020025970200FEE7FEE788
:10636000FEE7FEE7FEE7FEE7FEE7FEE7FEE7FEE705
:10637000704700BF1048804710484FF0070188431E
:1063800085460F4880470F48016841F4700101605D
:10639000BFF34F8FBFF36F8FFFF732BF0A480B4930
:1063A0000B4A884207D0521A05D0037801300B708F
:1063B0000131013AF9D170477163020000000120F8
:1063C0009D7B020088ED00E060FF0300982A00201A
:0463D000982A0020E7
:1063D4007047000007B5044B0093044A402300F0C3
:1063E40032F803B05DF804FBF5630200DD2B0020F6
:1063F4002DE9F84388461446B2B10F4B0F4E0325DE
:10640400002743F00109224608EB0701002003F0AE
:1064140053FD0744241A48B933782BB14FF47A401A
:10642400C847013D02D13570BDE8F88301233370BC
:10643400002CE8D1F8E700BF40000400DC2B00206A
:10644400704703F08DBDF0B595B01D46164608465D
:106454000C4601F0B9FA1A9B0D93CDE908650025A5
:106464002B46082205A920460A958DF82C500C9538
:1064740001F0C7FA079B0293069B03939DF814301F
:106484008DF8115003F00302012A1DD1BDF8142028
:10649400059DC3F3C203C2F383168DF81030B20016
:1064A40008230EA9204601F0ACFAC5F3952508ABE4
:1064B4000093324602AB0EA9284600F0B3FB2046F7
:1064C40001F086FA15B0F0BD022AF8D1BDF81650D5
:1064D400C3F3C203C5F389158DF810300827082DBE
:1064E4002E4628BF08263B4632460EA9204601F018
:1064F40088FAAD1B08AB02AA31460EA8374400F057
:10650400F5FB002DEBD1DAE708B5FFF79AFF044855
:10651400042100F0EFFA034B01225A7108BD00BFB9
:1065240050FF0300982A0020037813F0040216D0C9
:1065340003F00303012B03D0022B09D00120704781
:106544000A6800880232C0F3831002440A60F5E747
:106554000B684288023303EB92130B60EEE710469C
:10656400704700002DE9F04F87B000230446861CD5
:106574000DF107000F4615468DF8073000F0CAFEEE
:10658400454801683960D0E90132134401335B1A8C
:10659400824600F21C4700F5836900F21448B342B6
:1065A4001CD30020002D73D004F00F039B0143F093
:1065B400050363F30F00DAF80020DAF8083013401B
:1065C400033316444AF823009DF80700CAF8006014
:1065D40000F0C4FE012007B0BDE8F08F0121384669
:1065E40000F01DFF484600F032FF404600F02FFF48
:1065F400DAF80400DAF808B0029000EA0B0003307D
:106604000AEB800002A9FFF78FFF029B50BB0BEA45
:1066140003020AEB820203F1020CD26803920133F3
:1066240003EA0B0B0AEB8B0B02F00302012ADBF8E3
:106634000C10CDF808C023D0022A16D08346404659
:1066440000F008FF10B1029BCAF8043059463846DE
:1066540000F0E5FEDAE901231344DAF800200133FF
:106664009B1A9CE70BEA0300C9E7BDF80E30C3F39D
:10667400891303334FEA114B0CEB93030293DEE7C8
:10668400BDF80C30C3F383134FEA114B6344F5E7B1
:10669400A40544F006008EE7F02C00200B4B0C48B8
:1066A400FF2210B59A600022C3F81824C3E900221F
:1066B400C3F8142483F8202401F03FF9044610B9E8
:1066C400044801F0E7F9204610BD00BFF02C00207B
:1066D400D4FE03007C00040030B50A4C71B10A4AB0
:1066E4000A49121BD20800239A4201D1002030BD6E
:1066F40031F82350854202D00133F5E7034654F8BC
:106704003300F4E7E8FE030050FF0300982A00205A
:10671400094B013903EBC000032909D8DFE801F074
:106724000A020406042070470079704740797047D4
:106734000020704702207047E8FE0300034BD3E9B2
:106744000030C31A58425841704700BFF02C002053
:106754002DE9F04387B0FFF7F1FF0646002840F02B
:10676400F9807D4DC5F81804BFF34F8F6B68AC6892
:1067740002932340033305EB830002A9FFF7D4FE01
:10678400029B18B1D5F81824002A5FD004EA03024A
:10679400991C013305EB8202234005EB8303D26885
:1067A400DB68049302F00303022B0392029160D18D
:1067B400BDF80E306948C3F38917502FB84628BF77
:1067C4004FF0500868F38F1308F10801ADF80E304C
:1067D40001F0CBF80646002800F0A78001F0F4F899
:1067E4000023082203A9304601F001F9029924EAA2
:1067F40001020132B8EB820F4FEA820332D95FFA09
:1068040088F85BB32140DCB2A8EB040803315FFADB
:1068140088F9A046524C05EB8101082342463046D4
:1068240001F0E5F834B108F108034A462146304640
:1068340001F0DDF8029B033703EB97070297D5F8C5
:106844001834002B49D1D5F8104459E02A689A42EB
:106854008FD86A60304607B0BDE8F08340491C46D3
:106864009946DAE70C40E11C0823424605EB810116
:10687400DDE7012B59D1BDF80C303848C3F383113F
:10688400062928BF062161F3891302318900ADF876
:106894000C3001F06AF80646002846D001F094F85E
:1068A4000023082203A9304601F0A1F80027BDF80F
:1068B4000C20C2F38312BB00974203F10803BED23B
:1068C40002994A1C21400331029205EB8101042202
:1068D400304601F08CF80137E9E7304601F078F8EA
:1068E400FFF72CFF80F00100C6B2B3E7E3685B79E1
:1068F40023B1236831461B6820469847E3681C6827
:10690400002CF3D1304601F063F80DF107008DF847
:10691400074000F0FFFCD5F818340BB9029B6B60FC
:106924009DF8070000F01AFDDAE7D5F8104454B9D1
:106934000C4B0D480D49C01AC008000440F0020079
:1069440000F062F8CCE7236820469B689847E36828
:106954001C68ECE700267DE7F02C0020D4FE030041
:10696400FC2C0020E8FE030010FF03006400040078
:106974002DE9F74F224D04460F46924601A9012204
:106984001846D5F808909B46FFF7ECFD20B3019E0E
:106994004FF00008B21CD84508EB020126D1194873
:1069A400002100F00DFD80F31000000440EA1440C3
:1069B400E400731C04F0380403EA090306EA090638
:1069C40044F0010405EB8303033644EA881444EAE3
:1069D4008724D86045F8264095F820341BB1FFF78A
:1069E400B7FE0028FBD103B0BDE8F08F09EA01012E
:1069F40005EB81015AF82830CB6008F10108CAE799
:106A0400F02C00200C31002000231A46FFF7B0BF01
:106A140007B50123019201AAFFF7AAFF03B05DF8AD
:106A240004FB07B5CDE9002302236A46FFF7A0FF64
:106A340003B05DF804FB00002DE9F3472B4D044639
:106A4400D01C8946164601A900228008AF68FFF7CA
:106A540089FDA8B3DDF80480AB6808F10200019059
:106A6400013338401B1AB6EB830F00F103004FEAE1
:106A7400830A05EB80002DD83246494619F03BF9CC
:106A84001B48002100F09CFC80F3100008F1010376
:106A94003B4007EA0807220C05EB8303033742EA6D
:106AA4000040E400D86004F0380455F8273044F07E
:106AB400020444EA865203F47C131A4345F827205F
:106AC40095F820341BB1FFF743FE0028FBD102B038
:106AD400BDE8F0875246494619F00DF9A6EB0A02C3
:106AE40009EB0A0105F10C00C8E700BFF02C0020F7
:106AF4000C31002030B50F49D1F810240346002092
:106B0400144634B9DC6820714AB9C1F810342260E3
:106B140030BDE4682579854206D02468F1E7D2685F
:106B2400116821601360F3E701300A28E8D14FF0BF
:106B3400FF30EDE7F02C0020094A38B50123D2F8E4
:106B4400104482F820341D4604B938BDE3685D71F1
:106B5400236820465B689847E3681C68F4E700BF35
:106B6400F02C002007B503460846197A052911D0F0
:106B74005B7A2BB1094A0A49019000F0CEFC0198D6
:106B84000849019000F0C9FC019803B05DF804EBDA
:106B940000F0B8BC002AF8D0F2E700BF8800040077
:106BA4008D000400AD00040030B5C38885B00446F0
:106BB4000D4633B1144A00921449154A284600F090
:106BC400ACFC217A05291DD0637A4BB1A088FFF76C
:106BD4009FFD104B104953F82020284600F09DFCDF
:106BE400227A0E4BA08853F8222003920021FFF74B
:106BF40073FD039A0A490346284605B0BDE83040B0
:106C040000F08BBC05B030BD88000400980004007F
:106C140090000400140104008D00040038010400F5
:106C2400B00004002DE9F04385B01F460C9D0023FD
:106C340095F80C902B7306460C4690462946384628
:106C4400FFF7B2FFB8F1060F09D8DFE808F0041225
:106C5400181F283340003146284600F05EFC00220D
:106C640029463846FFF77EFF85F80C9005B0BDE84D
:106C7400F08322683146284600F04FFCEFE7D4E960
:106C840000233146284600F048FCE8E7A368009357
:106C94003146D4E90023284600F03FFCDFE7E368EF
:106CA4000193A36800933146D4E90023284600F0F9
:106CB40034FCD4E723690293E3680193A368009347
:106CC4003146D4E90023284600F027FCC7E763696E
:106CD400039323690293E3680193A3680093314605
:106CE400D4E90023284600F018FCB8E708292DE968
:106CF400F74F80460E4617461C463CD8002593F8AD
:106D04000C901D7319461046FFF74EFFDFF888A05C
:106D1400DFF888B0AE4231D918F80520594620462C
:106D240000F0FBFB0135082DF4D11949194DDFF8AA
:106D340070A0204600F0F1FB4FF0000B5E4522D915
:106D440018F80B207E2A05D81046019218F0E4FEAC
:106D5400019A00B92E225146204600F0DEFB0BF1C9
:106D6400010BBBF1080FE9D1012221463846FFF798
:106D7400F9FE84F80C9003B0BDE8F08F514620462C
:106D840000F0CBFBCEE72946204600F0C6FBE6E741
:106D9400C4000400C2000400C0000400BA000400DF
:106DA400C60004002DE9F04F364E87B04FF00009BD
:106DB400354B1B785FFA89F5AB4202D807B0BDE8C2
:106DC400F08F324BD3F800A01AF835000124D6E92D
:106DD400001EA0F12002C0F1200304FA02F224FAFA
:106DE40003F3134304FA00FC059301EA0C03009334
:106DF400059B0EEA03030193DDE9002313430AEB29
:106E0400C50B3BD0059B21EA0C012EEA0303C6E91E
:106E1400001301F007FB01461AF835001C4DA0F1E0
:106E24002002C0F1200304FA02F224FA03F313430C
:106E3400D5E900C28440134004EA0C040393A0F192
:106E44002002C0F1200321FA03F3029401FA02F8AC
:106E540048EA0308DDE9023401FA00F7444508BFB3
:106E6400BB420BD1DBF8043043B19BF80120541E24
:106E740062426241551A69426941984709F1010920
:106E840096E700BFE0310020AC310020E83100205B
:106E9400D8310020F8B506461E4818F0AFFCC0BB38
:106EA4000125A6F12004C6F1200325FA03F305FA0F
:106EB40004F41C43184BD3E900C2B5400CEA0500A6
:106EC40002EA040101431F461DD1304601F0AAFA2B
:106ED400124BD3E9001288B129432243C3E90012BB
:106EE400D7E900231C430E4B0A4819681543C7E928
:106EF40000540022BDE8F84018F038BC21EA05012E
:106F040022EA0402EAE72CEA050522EA0404C3E9BA
:106F14000054F8BDB4310020E0310020D831002005
:106F2400B0310020042A2DE9F34105460C461646EB
:106F340039D901F0B7F9D8B11C4B1D491D601D4B5F
:106F4400DFF884801C701C4B00221E600023C1E902
:106F540000231A49C1E90023013CE4B200260327B7
:106F6400FF2C0CD1164A1748002118F0EDFB03E062
:106F740001F060F90028DFD002B0BDE8F08105EB34
:106F8400C40315F834009B788DF80660424601A9C5
:106F94008DF804708DF8053001F08EF9013CE4B2EF
:106FA4000028DDD0E8E70720E6E700BFE83100204D
:106FB400D8310020AC310020B0310020E031002075
:106FC400A96D02004C010400996E020070B5084DD1
:106FD400084E00242B789C4201D3002070BD3368F6
:106FE400012113F8340001F0D9F90134F2E700BFAC
:106FF400AC310020E83100201FB50021039001AA24
:1070040044F20100CDE9011100F010F805B05DF87B
:1070140004FB00B583B002900091019244F2010098
:1070240071466A4600F002F803B000BD10B572B6AE
:10703400FFF782FDFFF78CFB0028FBD1104B114CAE
:107044001149E41AE408240444F00100FFF7DCFCCD
:107054000E4B1B68DB0700D500BE0D4944F002004F
:10706400FFF7D2FCBFF34F8F0A490B4BCA6802F4F7
:10707400E0621343CB60BFF34F8F00BFFDE700BF57
:10708400E8FE030010FF030050010400F0ED00E0EF
:107094005C01040000ED00E00400FA0549B152B1BE
:1070A400531E1A4007D1826001608380C26010467B
:1070B40070470E2070470920704710B58468C26875
:1070C4008388121B934208D3C26813400268D154C8
:1070D400C3680133C360002010BD0420FCE782684C
:1070E400C3689A420AD08268838813400268D35CDA
:1070F4000B7083680133836000207047052070475C
:107104000648074A03780749D35C012213B10430C7
:1071140001F088BE0C3001F071BC00BFA02A002031
:1071240050320020143200200648074A03780749E9
:10713400D35C012213B1043001F026BE0C3001F0FF
:107144000BBC00BFA02A00205032002015320020C2
:1071540037B50578012D0BD0022D2CD0F5B91D497A
:107164001D48FFF7BCFF002830D1FFF7DDFF15E015
:1071740043681A4C19782046FFF79FFF80B18DF8B9
:1071840000500190164B68461B689847A168E36855
:10719400A2885B1A9A420AD3FFF7B2FF03B030BD4C
:1071A400A268E3689A42F1D08DF80000EAE70D4B3B
:1071B40001221A70F2E7C3688DF800500193FFF7BB
:1071C4009FFF074B68461B689847E7E703238DF842
:1071D4000030F6E71532002004320020F0310020A0
:1071E400EC31002000320020F0B51F46234B89B05B
:1071F40004461A600D4600293DD08A882048096853
:10720400FFF74CFF002834D1AA89A9681D48FFF76D
:1072140045FF00282DD11C4E0FCE6D460FC596E8B4
:107224000F0085E80F0063690693237C174A18480A
:107234008DF81C70003B18BF01238DF81430637C5B
:10724400002B14BF0E2300238DF81530E36802933E
:10725400A36803932368019369466368009300F06D
:1072640025FF30B90B4B18702368013301D0FFF7A9
:1072740047FF09B0F0BD0720FBE700BFEC31002059
:10728400F0310020043200206C010400557102002A
:10729400A02A00200032002070B5084D014608489D
:1072A4002E78FFF71CFF044636B100232B70FFF73E
:1072B40027FF08B1FFF7A0FE204670BD0032002072
:1072C400F031002010B501460E48FFF7F6FE0446E3
:1072D400A8B90D480D4A0378D35C63B1043001F0BA
:1072E40095FD60B90A490748FFF7F9FE38B9BDE8CA
:1072F4001040FFF719BF0C3001F074FBF1E7204692
:1073040010BD00BF04320020A02A0020503200200B
:107314001532002070B5EFF3108672B60C4A9468EB
:1073240001239CB993600B4B0B4DD3F8801029407B
:107334001160C3F88050D3F8841051604FF0FF32CD
:10734400C3F88420047006B962B670BD0370FAE70E
:107354001832002000E100E0FC06FFBD084B9A68EB
:1073640010B55AB150B9EFF3108172B6054A1C68D2
:1073740014605C685460986001B962B610BD00BFC7
:107384001832002000E100E001F01F024B09012146
:10739400914000EB830000F01EB801F01F030122AE
:1073A4009A404B0900EB8300D14300F02CB84B0901
:1073B40001F01F0150F82300C84000F0010070479D
:1073C40010B5034653E8000F0A4643E8002494F03E
:1073D400000FF7D110BD10B5034653E8002F42EA61
:1073E400010043E8000494F0000FF6D110BD10B57D
:1073F400034653E8000F00EA010243E8002494F036
:10740400000FF6D110BD10B5034653E8002F02EA71
:10741400010043E8000494F0000FF6D110BD10B54C
:10742400034653E8002F02EB010043E8000494F004
:10743400000FF6D110BD10B5034653E8002FA2EBA0
:10744400010043E8000494F0000FF6D110BD0121BF
:10745400FFF7C1BF0021FFF7CABF10B590B1D0E953
:10746400012301689B1ADBB20A60013BDBB2FF2BEC
:10747400026802D10020107110BD11684C1C146008
:107484000B70F2E70E20F7E737B5054600240DF13F
:1074940007008DF80740FFF73DFF2A686B68116805
:1074A40099420ED9481E106011F8014CEB68298AE4
:1074B40001FB0434AB6811791B1ADBB2994238BF63
:1074C40013719DF80700FFF749FF204603B030BD54
:1074D40037B5054600230DF107000C468DF807303B
:1074E400FFF718FF2A681368591C1160E968641AC9
:1074F400298AB4FBF1F41C709DF80700FFF72EFFF6
:1075040003B030BD826810B504462AB143690168EE
:10751400006998470023A36010BD0EB403B5039916
:1075240021B104AB01AA019300F076F802B05DF832
:1075340004EB03B070470A2938B504460D4602D15E
:107544000D21FFF7F8FFA3682268591CA160D554E8
:10755400D4E901329A4204D32046BDE83840FFF70B
:10756400D1BF38BD2DE9F84F9846DDE90A431546E9
:1075740082460F460A464FF00109AA420FD2C1457E
:1075840038BFC14613F0010B01D16CB900240126A8
:10759400B8F1010F1BD908F1FF386E43F8E709F180
:1075A4000109B2FBF5F2E8E79B070ED5B8F1000F2D
:1075B4000CBF30262026A145E9D2013C3146504675
:1075C400FFF7B9FF002CF6D1E0E72026F3E7B7FB7D
:1075D400F6F39D42E1D9DFF83C80B7FBF6F3504661
:1075E40018F8031006FB1377FFF7A5FF3346AB42E9
:1075F400B6FBF5F6F1D2BBF1000F02D00CB1A145F8
:1076040001D3BDE8F88F20215046013CFFF793FFDA
:10761400F4E700BF8C0104002DE9F74F0546174637
:107624008846002900F0428118F8011B49B92B7BD8
:10763400002B00F03B81284603B0BDE8F04FFFF774
:1076440061BF252940F0B780002698F800302D2B23
:10765400424608F1010823D0302B24D02B2B25D00F
:1076640000242A2B02F1010123D13B681A1D1B6857
:107674003A601C440A4613782E2B26D101324FF06F
:10768400000A104610F8011BA1F1300CBCF1090FDF
:107694001DD80A2303FB0A13A3F1300A0246F0E7BC
:1076A40046F00106D1E746F00206CEE746F00406AE
:1076B400CBE711F8013CA3F130000928DBD80A22FA
:1076C40002FB0434303C0A46CBE74FF0000A12F8C0
:1076D400011B01F0FB0068289046F8D0782909D8EE
:1076E4006F290CD8632962D022D8252963D0582960
:1076F40000F0888098F80030002B95D197E7703916
:107704000829F7D801A353F821F000BF8B780200B1
:10771400F9760200F976020019780200F97602007F
:10772400F7770200F9760200F97602000978020080
:10773400642901D06929DDD13A68D2F80090111D7D
:1077440089EAE9723960A2EBE9724FF0010B092A68
:1077540035DCD34538BFD3462CB1B9F1000F01DB7A
:10776400720700D5013CB30702D5BAF1000F03D06C
:10777400F00701D44CBB0024B9F1000F2DDAC9F194
:1077840000092D212846FFF7D6FE06F00302022A3F
:1077940004D1BAF1000F01D11CBB0024CDE900468D
:1077A40053460A2249462846FFF7DCFEA2E73B6817
:1077B4001A1D19783A602846FFF7BDFE9AE70A2396
:1077C4000BF1010BB2FBF3F2C1E7A345D4D22021A4
:1077D4002846013CFFF7AFFECCE77107D5D52B2136
:1077E400D0E7A345DAD230212846013CFFF7A3FEB7
:1077F400D2E73968CDE900460A1D3A6053460A22A9
:107804000968D0E739680A1D3A60CDE90046534655
:107814001022F5E73B681A1D3A6016F00106D3F80A
:10782400009028D1B9F1000F03D0484618F0E1FACE
:107834000646B44200D904BB09F1FF3919F8011F07
:1078440000293FF457AF2846FFF775FEF6E72846B0
:107854000136FFF770FE19F806100029F7D1A64289
:10786400BFF448AF002C3FF445AF20212846013C2B
:10787400FFF761FEF3E70026EDE720212846013CEF
:10788400FFF759FED5E73B681A1D3A6030212846B8
:107894001C68FFF750FE78212846FFF74CFE0022B3
:1078A4000823CDE90032214610227CE703B0BDE86D
:1078B400F08F00BF2DE9F84FB0F806A04579D2F853
:1078C40000B09DF828900AFB05F5043D88460BEBB3
:1078D4000301A94203F1040488BFA5EB030BB4FB25
:1078E400FAF607460AFB1644C2F800B04EB9AAEBF2
:1078F40004055D4528BF5D46BBF1000F04D1BDE81A
:10790400F88F3F68013EF1E7043408EB06003C447D
:107914002A46B9F1000F0DD02146ABEB050B18F048
:10792400EAF9DA452E443F6855464FF0000428BF73
:107934005D46E1E701462046EFE7FFF78EBDF8B567
:1079440046790146721E0546002393422D6803D3EF
:107954000024A64202D8F8BD0133F6E70F68284692
:10796400FFF7B6FD01343946F3E72DE9F843068AFB
:10797400CD1C0746FFF788FD043E35440446B5FB9D
:10798400F6F5F0B14FF48073EDB28380C680013D0B
:10799400076081464FF00008A84512D23846FFF729
:1079A40073FD064648B163790133637108F1010838
:1079B400C9F8000007608146EEE72046FFF7BFFFE5
:1079C40034462046BDE8F88301210430FFF727BD83
:1079D40010B5012104460430FFF72DFD10F0FF0F10
:1079E40004D12046BDE81040FFF7A9BF10BD1FB564
:1079F40003920022009203AAFFF75CFF05B05DF832
:107A040004FB1FB503920122009203AAFFF752FF61
:107A140005B05DF804FB41DF70470000064B10B56C
:107A240000241C70054B1C60BFF35F8F044905489C
:107A340000F039F8204610BD2C32002030320020EE
:107A4400A80104002432002007B500230DF107002B
:107A54008DF80730FFF75EFCF1EE103A23F09F0338
:107A6400E1EE103ABFF35F8F094B4022C3F8842143
:107A74009DF80700FFF772FC03F020FF20B1FFF729
:107A8400CAFF03B05DF804FB20BF40BF20BFF8E786
:107A940000E100E0836800225A60C3E904229A608E
:107AA400DA601A6070470B684A684360934208BF03
:107AB4000023016008BF43607047436843B1026814
:107AC400916852680B449342436004BF00234360AF
:107AD4007047000010B50D49A1F59472914201D888
:107AE40000200FE08C1AE30F03EBE4035B1002EBBE
:107AF400C30452F83330834205D802D204F1080299
:107B0400ECE7606810BD2146E8E700BFAC0604005E
:107B140008B5FFF7DFFF024B002808BF184608BD71
:107B24006E0504000C4B1B78062B10D10B4B1B6805
:107B34001A070CD10A4B186800F0F003302B08D058
:107B440000F0E000A0F14003584258417047002083
:107B540070470120704700BFE00F00F0E40F00F011
:107B6400E80F00F0094B1B78062B0CD1084B1B685F
:107B74001A0708D1074B186800F0F000A0F1300391
:107B84005842584170470020704700BFE00F00F092
:107B9400E40F00F0E80F00F008B5FFF7C3FF28B1C9
:107BA4007D4B7E4A1B68C3F304231360FFF7DAFF9F
:107BB40010B17B4B7B4A1A60FFF7B4FF28B17A4BB4
:107BC4007A4A1B68C3F342331360FFF7CBFF20B13B
:107BD400774AD36823F08073D360FFF7A3FF40B1E3
:107BE4004FF080430022C3F80C21C3F81021C3F8DE
:107BF4003825FFF7B7FF10B16E4B03221A60FFF769
:107C0400B1FF40B16C4B05221A6001229A67002231
:107C14009A603F225A60694B1B78062B50D1684BFF
:107C24001B6819074CD1674B1B6803F0F003502BFA
:107C340046D14FF08052644BD2F80414C3F8201597
:107C4400D2F80814C3F82415D2F80C14C3F8281574
:107C5400D2F81014C3F82C15D2F81414C3F8301544
:107C6400D2F81814C3F83415D2F81C14C3F840150C
:107C7400D2F82014C3F84415D2F82414C3F84815D4
:107C8400D2F82814C3F84C15D2F82C14C3F85015A4
:107C9400D2F83014C3F85415D2F83414C3F860156C
:107CA400D2F83814C3F86415D2F83C14C3F8681534
:107CB400D2F84014C3F86C15D2F84424C3F87025E4
:107CC400FFF730FF28B1414B414A1B6803F04F03D3
:107CD4001360FFF727FF48B14FF08043D3F8002427
:107CE400D20744BF6FF00102C3F80024394B1B686C
:107CF400062B08D1384B1B68062B01BF374A136883
:107D040043F480631360364AD2F8883043F4700336
:107D1400C2F88830BFF34F8FBFF36F8F4FF010233B
:107D2400D3F80022002A03DBD3F80432002B2FDA25
:107D34002C4B0122C3F80425D3F80024002AFBD0DD
:107D44004FF010221521C2F80012D3F80024002AA3
:107D5400FBD04FF010231522C3F80422214B1A46FE
:107D6400D3F800140029FBD00021C3F80415D2F87D
:107D74000034002BFBD0BFF34F8F19491A4BCA684C
:107D840002F4E0621343CB60BFF34F8F00BFFDE703
:107D9400164B174A1A6008BD2403001040350140F1
:107DA40074C007400DF0ADBA440200103C05004019
:107DB400F0ED00E0A005004010560040E00F00F098
:107DC400E40F00F0E80F00F000C00040580200107B
:107DD400E40E004030010010340100103C17004054
:107DE40000ED00E000E001400400FA05B42A0020A0
:107DF4000090D003054A4FF0A043105CD3F804353B
:107E040023FA00F0C04300F001007047B0060400FC
:107E1400044B1A5C012393404FF0A042C2F80C3586
:107E2400704700BFB0060400044B1A5C0123934062
:107E34004FF0A042C2F80835704700BFB0060400F6
:107E440008B50020FFF7F0FF0120FFF7EDFF022047
:107E5400FFF7EAFFBDE808400320FFF7E5BF08B5D8
:107E64000020FFF7D5FF0120FFF7D2FF0220FFF724
:107E7400CFFFBDE808400320FFF7CABF074A4FF011
:107E8400A041105CD1F804350122824022EA0300AB
:107E94001340C1F80805C1F80C357047B00604005A
:107EA400054A4FF0A043105CD3F8103523FA00F0D4
:107EB400C04300F001007047AC0604000D2809D04F
:107EC4000E2809D00F2809D010280CBF03204FF02A
:107ED400FF30704700207047012070470220704730
:107EE400014B185C704700BFAC060400C20708B51C
:107EF40001460CD54FF0A0430322C3F84427C3F82E
:107F04004827C3F84C27C3F85027FFF799FF8B077E
:107F14000AD54FF0A0430C22C3F83427C3F83827FE
:107F2400C3F83C27C3F8402708BD000038B5074C08
:107F3400051E04F1080318BF1C4623682BB11A68F8
:107F440022605B6828469847F7E738BD3C3200203A
:107F540020B9054B01225A70FFF7E8BF012802D16E
:107F6400014A9070F8E770473432002020B9034B7F
:107F740001225A70FFF7DABF704700BF3432002085
:107F840038B50B4C237883B90A486360A360236136
:107F9400E36000F0C9F8054603F090FC08B900F06E
:107FA400CFF801232370284638BD8525FBE700BFA1
:107FB40034320020557F020037B50B4C00230DF1FD
:107FC40007008DF80730FFF7A5F9E368013BE3608C
:107FD400E56815B900F0C6F8A5709DF80700FFF72D
:107FE400BDF903B030BD00BF34320020012813B501
:107FF40008D003281CD018B9104B0122C3F88020E4
:1080040002B010BD0E4C00230DF107008DF80730AF
:10801400FFF780F923780BB9FFF7B2FFE3689DF807
:1080240007000133E3600123A370FFF797F9E7E743
:1080340000F086F8FFF7C0FFE2E700BF00E100E0D0
:10804400343200201FB503788DF800304368019363
:1080540083688DF80830C368054A0393054B684666
:1080640053F8213052F82110984705B05DF804FB0D
:10807400483200204C3200201FB503788DF80030C0
:108084004368019383688DF80830C368054A0393F5
:10809400054B684653F8213052F82110984705B033
:1080A4005DF804FB483200204C320020F0B5194B37
:1080B40090F800C091F81DE043F82C20164B1646AA
:1080C4000A6943F82C20154B03F80CE00C460746CC
:1080D4000FCC89B06D460FC594E80F0085E80F00FA
:1080E400CDF810C0BEF1000F09D0002E0C4A69462D
:1080F40008BF3246381D00F083FD09B0F0BD002EE4
:10810400084A694608BF324607F10C0000F068FBD4
:10811400F3E700BF4C3200204832002050320020E8
:10812400498002007D800200044A137923B90121A9
:1081340010609180184670478520704754320020A3
:10814400074B1A68D2075FBFC02283F800230122BD
:108154001A604FF080430122C3F81825704700BF0E
:1081640000E100E0044B01221A604FF08042D2F893
:108174001834DB03FBD470470C000040154B07B5E3
:108184001A687AB100221A601B680093009B4FF0B2
:1081940080430122C3F808230F4B587910B95A7150
:1081A4001B6898470D4B1A6882B100221A601B683D
:1081B4000193019B4FF080430222C3F80823064B2E
:1081C4001B68012003B05DF804EB184703B05DF8A9
:1081D40004FB00BF000100405432002004010040B1
:1081E40000F1804000F5C040002382B003600368C2
:1081F4000193019B02B07047800000F1A040D0F8C9
:10820400002722F44032C0F80027D0F8003743EAB0
:108214000141C0F800177047054B4FF0FF320728A3
:1082240043F8202084BFC01880F84820704700BF5E
:108234005C32002010B5174C94F8583043BB04F15D
:1082440030032021FF22013911F0FF0103F8012B33
:10825400F9D1C8B2FFF7E0FF01310C29F9D10422AA
:1082640000210D4817F070FD0C4BC02283F8062343
:1082740040221A604FF4BE70FFF7B2FF084B4FF074
:108284000042C3F80423012384F85830002010BDB1
:108294000820FCE75C320020B032002000E100E05E
:1082A40000600040034B93F85800003818BF0120C9
:1082B400704700BF5C320020F0B5364D2C1894F99D
:1082C4003040002C64DA8C78C4F34004002C0BBFDB
:1082D400082300230C260826B34201D10420F0BD54
:1082E40055F8237001373FD12E1845F8232086F81E
:1082F400303014B9EA1882F848008A78540713D445
:10830400D60733D5820002F1A042D2F8004724F008
:108314000204C2F80047204EC20800F007070124F7
:10832400BC40B75C3C43B4548A780C7812F0020227
:1083340025D09B0003F1804303F5C0430202D3F828
:10834400101521F4473121F44071C3F810152404A9
:10835400D3F8101502F4F85204F4403422430A43CB
:10836400C3F810250020BAE70133B5E74C7800F5CF
:10837400E0724FF0A046A40046F82240CBE7083B49
:108384002B4493F8501041EA841483F85040E9E7F1
:108394000820A4E75C320020B032002038B51F4C1E
:1083A400251895F93020072A16DD224492F8483022
:1083B4009B09032B0BD14FF0A043D3F81015C140F8
:1083C40001F001010231BDE83840FFF715BF012B70
:1083D4000CBF02210321F6E7D3B2072B1CD893006C
:1083E40003F1804303F5C043D3F8100540F00100C6
:1083F400C3F8100502F14000800080B2FFF7F0FEE0
:1084040051B195F9303054F823302BB1012303FADC
:1084140002F2034BC3F8042338BD00BF5C320020D2
:10842400006000404FF0A043D3F8103523FA00F069
:1084340000F00100704700002DE9F04F87B00024E0
:108444005A4D03944FF48072012102F1804303F5E5
:10845400C04390B21B68012B06D1D5F804330B42FC
:1084640002D0FFF7BDFE0C430432B2F5907F4FEA11
:108474004101EAD14E4B1B68012B0AD14FF4BE7067
:10848400FFF7AEFE4FF0A04344F00044D3F810359C
:10849400039314F0FF0F1AD0464F002501263442EF
:1084A40010D0AB0003F1804303F5C043D3F81005AB
:1084B400D3F8101557F8253023B1C1F30141C0F3A7
:1084C400042098470135082D4FEA4606E7D1002CD1
:1084D40065DA00214FF0FF33CDE90413354D012750
:1084E4004FF0000A344ED1464FF0A04816F9013B34
:1084F4005A1C45D0C3F3C20106AA5018DCB210F8C6
:10850400042C03F03F0B03F0070307FA03F31A42AA
:1085140036D005EB0B02A40992F9302055F822203D
:1085240052B9032C2CD10DF1100E1EF801C04CEAE7
:10853400030C0EF801C001E0032CF4D00BF5E0713C
:1085440010F80C0C58F821101842C1F3014105D061
:10855400022915D1032C0FD1214604E003290FD1A0
:10856400032C09D102215846019209F10109FFF7B0
:1085740043FE019A5FFA89F912B1214658469047A1
:108584000AF1010ABAF1040FB0D1B9F1000F06D013
:108594004FF0A043039AD3F81035934202D107B0A9
:1085A400BDE8F08F0393049B059399E700600040B6
:1085B4007C6100405C320020AC320020014B1B681F
:1085C400184700BFB83200200E4B984237B50C460E
:1085D40002D0002003B030BD00230DF107008DF858
:1085E4000730FEF797FE084B1D7915B901221C6070
:1085F4001A719DF80700FEF7B1FE002DE9D0112095
:10860400E8E700BF00200040B832002000234350B8
:1086140082B043580193019B02B070470A4610B5DB
:108624004FF48E71FFF7F2FF136A9168C95C136A05
:1086340001331362C0F81C1510BD024608B500686A
:108644004FF49271FFF7E2FF4FF484711068FFF763
:10865400DDFF136801221A6008BD8B690A4610B554
:108664004FF4847123B9FFF7D1FFD0F8183510BD4A
:10867400FFF7CCFF536AD168D0F81805C854536A81
:1086840001335362F3E700001FB501238DF8003076
:10869400044BCDE90110D3E900126846904705B0B8
:1086A4005DF804FBC032002030B54B48D0F80433E9
:1086B40013F4007F85B005464DD0D0F82431002B4B
:1086C40049D04FF49271FFF7A1FF4FF40173C0F842
:1086D4000833424B93F829200AB9012242603E49EB
:1086E40002228DF80020D1F88024C1F8802403925E
:1086F4009A690292DA6801920022C3E90622684666
:10870400D3E9001290473448D0F81C315BB13349A7
:108714000A6A4B699A420A464AD291F82830002BD9
:1087240046D1FFF77BFF2C48D0F844318BB14FF48E
:10873400A271FFF76BFF294B93F829200AB101229C
:1087440002609A692AB10022586AD9689A61FFF7CF
:108754009BFF05B030BDD5F804335B07D3D5D5F8FE
:108764000831002BCFD01D4C1B482146FFF775FF65
:10877400636AA2699A422346C5D1E269E1684AB1B3
:108784002369E3600023606AA261E3616362FFF727
:108794007BFFB8E794F829200AB901226A600E4ADF
:1087A4004FF40170C2F808030022586A9A61EEE798
:1087B4004FF48E710848FFF729FF51690029B2D0A0
:1087C4000023029191688DF800300191536168464D
:1087D400D2E900139847A6E700200040C0320020E9
:1087E4002DE9F843574B057991462C2202FB0532BB
:1087F400064692F82A200C469846002A40F09D80AE
:1088040051490068FFF7E0FE0746002840F09780D2
:1088140021683368481C0BD04FF0A04001228A40E5
:10882400C0F8082501F5E0724FF0030C40F822C0AF
:108834006068421C1FBF00F5E0724FF0A04C4FF07F
:10884400000E4CF822E0A269C3F8242594F814C061
:10885400627DBCF1010F4CEA0202C3F86C25C3F837
:108864001405C3F80C151DD1A1684A1C1FBF01F5DE
:10887400E0724FF0A0404FF0000C40F822C0E268D4
:10888400501C0BD04FF0A04C01209040CCF80805B0
:1088940002F5E0704FF0030E4CF820E0C3F8082511
:1088A400C3F810152C236B4308EB0302C2F80490A1
:1088B400226948F80320B9F1000F2BD03068247FD7
:1088C4004FF48E71FFF7A2FE30684FF4A271FFF7E8
:1088D4009DFE32681D4BC2F80433110B42F307327C
:1088E400002AA8BF02F160404FEA4413BABF1848F7
:1088F40001F00F0400F56140DBB2B4BF035580F80A
:10890400003301F01F01012303FA01F15209114B55
:1089140043F8221033680422C3F800252C2303FBF8
:1089240005830022C3E9062283F829205A61012223
:1089340083F82A203846BDE8F8830827FAE7112788
:10894400F8E700BFC0320020AD86020080000200BC
:1089540014ED00E000E100E02DE9F843204B077935
:108964004FF02C0909FB0734054666699846002E2A
:1089740033D100686261A16026624FF48E7184F87D
:108984002860FFF743FE2868012383602146FFF730
:1089940045FE6368A14683B92868226A63699A42DE
:1089A40011D32B68D3F81C21002AFBD00122DA60F2
:1089B4002C2303FB078300225A613046BDE8F88369
:1089C40094F828303BB9D0F81C31002BF8D0494634
:1089D400FFF724FEE1E70F26EAE71126EDE700BFE3
:1089E400C03200200379044A2C2101FB0323586977
:1089F400003818BF01207047C03200202DE9F84329
:108A0400394F05792C2303FB057306465C6824B1B2
:108A140003684FF40170C3F808032C2303FB0573A8
:108A2400986950B1D86900283ED024B133684FF416
:108A34000172C3F80423112433E09A61D9605862A7
:108A4400D8612C2303FB057393F829301BB910B9A3
:108A54003046FFF7F2FD4FF02C0909FB057830682A
:108A6400D8F80430002B34D14FF4A271C146FFF77B
:108A7400CDFD3068D0F82431D0F80821D0F8444135
:108A8400B2B90CB9002BF4D02C2202FB05750022DC
:108A9400AA6123BB2CBB95F8291033680122B1B11C
:108AA4001A602046BDE8F8831961DA610120C8E73D
:108AB400002BE9D1002CE7D14946FFF7CEFDD8F8C9
:108AC4002430D8F818209A42D3D82346DCE75A60D9
:108AD400E7E74FF40173C0F804330024E1E703240B
:108AE400DFE70F24DDE700BFC0320020002343503E
:108AF40082B043580193019B02B070471FB5012314
:108B04008DF80030044BCDE90110D3E9001268461A
:108B1400904705B05DF804FBEC3200207FB5364A7F
:108B2400D2F82461002E46D010464FF49271FFF71C
:108B3400DDFF02238DF80030D2F88034C2F880348F
:108B44000393D2F83C3502932C4BDA68019200224D
:108B5400C3E906226846D3E9001290472648D0F8B4
:108B6400443173B14FF4A271FFF7C0FF234B9A69EC
:108B74003AB10022C3E90622D968D0F83C05FFF7D0
:108B8400BDFF1D48D0F820319BB14FF49071FFF721
:108B9400ADFF1A4B5A6962B1D0F84C15029100220C
:108BA40099688DF8002001915A616846D3E9001252
:108BB400904704B070BDD2F81031002BCED04FF4E2
:108BC40088711046FFF792FF0C4BD2F83C05996967
:108BD4008842C3D1DC69D96864B1D2F8005225F067
:108BE4002005C2F800521A699C61DA60DE61FFF761
:108BF40085FFB3E79C61FAE700200040EC320020D7
:108C04002DE9F8435B4B06799146242202FB063298
:108C1400044692F820200D469846002A40F0A5808C
:108C240055490068FFF7D0FC0746002840F09F80B4
:108C340029682368481C0BD04FF0A04001228A40C9
:108C4400C0F8082501F5E0724FF0030C40F822C08B
:108C54006868421C1FBF00F5E0724FF0A04C4FF053
:108C6400000E4CF822E0AA69C3F8242595F814C034
:108C74006A7DBCF1010F4CEA0202C3F86C25C3F80B
:108C84000C15C3F814051DD1A9684A1C1FBF01F5B2
:108C9400E0724FF0A0404FF0000C40F822C0EA68A8
:108CA400501C0BD04FF0A04C01209040CCF808058C
:108CB40002F5E0704FF0030E4CF820E0C3F80825ED
:108CC400C3F810152423734308EB0302C2F804907D
:108CD4002A6948F80320B9F1000F35D020682A7FAB
:108CE4004FF48871FFF702FF20684FF49071FFF78B
:108CF400FDFE20684FF49271FFF7F8FE20684FF4F0
:108D0400A271FFF7F3FE23681C49C3F80413190B7F
:108D140043F30733002BAEBF03F1604001F00F05AE
:108D240017484FEA4212A8BF00F56140D2B2B4BF5F
:108D3400425580F8002301F01F01012202FA01F1DB
:108D44005B09104A42F8231023680822C3F800255F
:108D5400242303FB06830022C3E906225A6101226D
:108D640083F820203846BDE8F8830827FAE711275E
:108D7400F8E700BFEC320020218B02001003020050
:108D840014ED00E000E100E001F06043B3F1005FA6
:108D94002DE9F041064632D11B4B0779242505FB0A
:108DA400073598466C6964BB6A610068A9604FF432
:108DB4009071FFF79BFE4FF4AC713068FFF796FE9D
:108DC40033686A69A968C3F84415C3F848250122C1
:108DD4009A606A6862B9D3F82021D3F8584152B92D
:108DE400002CF8D00F24242303FB078700237B6186
:108DF4002046BDE8F081002C18BF0F24F3E71024AF
:108E0400F6E71124F4E700BFEC3200200379044AAA
:108E1400242101FB03235869003818BF012070473F
:108E2400EC320020F8B501F06043B3F1005F044672
:108E34000F465ED10379304D242101FB035149686B
:108E440021B100684FF40476C0F80863242000FBC5
:108E540003539E6956B1D869002839D021B12368DB
:108E64004FF40472C3F80423112030E09A61DF60E8
:108E7400DE6120684FF48871FFF738FE20684FF4F4
:108E8400A271FFF733FE2368C3F83475C3F838259D
:108E940016BB01221A602179242202FB0152526876
:108EA4000ABBD3F81041D3F84421D3F82401144366
:108EB40002D10028F5D02246242303FB01550023C8
:108EC400984218BF03209A42AB6118BF0F20F8BD27
:108ED4001F61DA610126CCE7D3F8002242F02002B8
:108EE400C3F80022D7E74FF40472C3F80423002028
:108EF400EDE71020EBE700BFEC3200200220FEF784
:108F0400BDBF00002DE9F04780460D46FEF7D6FFB1
:108F14000328044610D8012D10D0022D30D05DB99D
:108F24001A4816F06BFC1A4B04EB440213449E7867
:108F3400184B1B5DB34219D0BDE8F087144D00EB0C
:108F44004002A918AE5C4A78470052B1DFF84C9051
:108F54000E484A464FF4004116F008FC08B989F857
:108F640000803B192B449A780A4B1A55002EE3D003
:108F7400094B1B68002BDFD03046BDE8F04718478B
:108F840000EB4004024804446678EFE734330020E1
:108F9400743300208D3300208833002010330020E8
:108FA40000780221FFF7AEBF08B5094B1B7853B117
:108FB4000020FEF739FF0120FEF736FFBDE8084028
:108FC4000320FEF731BFBDE80840FEF739BF00BFFC
:108FD40011330020F8B57B4C237805461BB10023E0
:108FE4002370FFF7E1FF172D00F28880DFE805F01A
:108FF4000C17174354657680888D888D959A9A9AB4
:109004009A9AC4C9D1D9E4E4FFF7CEFF6E4816F0AA
:10901400F5FB6E4B002204461A702046F8BD002072
:10902400FEF7E8FEF8B10020FEF7FEFE022D0CBFAD
:109034004FF4E1614FF47A61644B1D704FF40040CA
:109044004FF4FA740025E0FB01454FF47A720023D3
:109054002046294616F0A0FC00220146BDE8F8404F
:10906400594816F083BBFEF7D3FE022D0CBFC8216E
:109074004FF4C871E0E70020FEF7BCFE40B10020C9
:10908400FEF7D2FE4FF44871504B03221A70D5E715
:10909400FEF7BEFEC821F7E70020FEF7ABFE38B1AD
:1090A4000020FEF7C1FE4FF47A61484B0422EDE73D
:1090B400FEF7AEFE4FF4C871F7E70020FEF79AFE04
:1090C40048B10020FEF7B0FE404B05221A7041F66D
:1090D4009A110022C2E7FEF79BFEF5E70020FEF797
:1090E400CDFE3A4B06221A70002240F6CD41B5E778
:1090F4000020FEF78DFE354B07221A7000248CE702
:1091040001202070FEF7BAFEEEE701202070FEF782
:10911400B5FE00224FF48041A0E7FEF7A0FE2B4BE2
:109124000C22EAE72A482B4E16F068FBD5F111050C
:1091340004461CD0D8B9012D13D0C8235D434FF485
:1091440000474FF4FA7000214FF47A720023C7FBF2
:10915400050116F021FC224601461D4816F006FBC7
:1091640004460220FEF754FE0123337055E7022023
:10917400FEF75AFE0023F8E7FFF716FF134B1222FF
:10918400BBE7FFF711FF0020FEF742FE0F4B13224F
:10919400B3E7FFF709FF0120FEF73AFE0B4B142259
:1091A400ABE7FFF701FF0020FEF732FE0120FEF7D8
:1091B4002FFE064B1522A0E7FEF751FE034B1D7050
:1091C4009CE700BF84330020543300208C330020FC
:1091D4001433002011330020044B1B68DB0703D534
:1091E400034B1878FFF7F6BE704700BF80330020AA
:1091F4008C330020032801D8FEF752BE00207047AC
:10920400044B1B6813F0010301D0FFF7E3BE1846BB
:10921400704700BF8033002038B51C4B18601C4BCE
:1092240010F00204054619601AD01A4B1A480E228F
:109234001A700F22DA7010229A7111225A720421C4
:1092440040F26662FDF76EFE044648B9FDF7BEFEC5
:10925400044628B90146114A114816F075FA044625
:10926400EB0711D50120FEF741FE6CB921460D4AEA
:109274000D4816F069FA044630B9BDE838400B4A87
:109284000B48012116F060BA204638BD8033002017
:109294008833002074330020D4060400A58F020014
:1092A400F8060400DD910200FC060400018F0200B0
:1092B400F4060400032811D8012A0AD101290FD188
:1092C40000F10E02D2B20D4B00EB40001A54002004
:1092D40070470129F7D0022904D049B1072070470B
:1092E4000022F8E7054B00EB400018444270EEE71B
:1092F400024B00EB400018448270E8E7743300200E
:10930400032808B512D8FEF7EBFD800000F1A04059
:10931400D0F8003723F44033C0F80037D0F80037D2
:1093240043F44033C0F80037002008BD0620FCE7B2
:1093340008B5012202210020FFF7BCFF08B107286D
:1093440010D1072202210120FFF7B4FF08B107283A
:1093540008D100210A220846FFF7ACFF10B1072804
:1093640008BF002008BD00000388102B10B502D0F0
:10937400112B1ED010BD1A4C2168B1B90122084628
:10938400FFF798FF08B1072824D107220221012002
:10939400FFF790FF08B107281CD104220221002006
:1093A400FFF788FF08B1072814D12368013323602D
:1093B400E0E70B4A1368013B1360002BDAD1FFF797
:1093C400B7FF0028D6D0074B1B68002BD2D0BDE8CE
:1093D40010401847034B1B68002BE6D09847E4E77E
:1093E400983300209433002008B50020FFF788FF4D
:1093F40008B1062806D10120FFF782FF10B1062824
:1094040008BF002008BD00000D4B10B518600C46C5
:1094140029B10120FFF7EEFE40B102232370094B6E
:109424001B6853B9BDE81040FFF782BFFFF7E2FEA7
:1094340008B10B23F2E72070F1E7002010BD00BF54
:10944400943300209833002076DF70477ADF70472A
:109454007CDF70477FDF70478FDF7047B1DF704775
:1094640033DF7047FDF7C8BD0E38032801D800F07C
:1094740081BB70470388212B13B504463DD007D820
:10948400112B2BD0132B40D0102B0CD002B010BDBD
:10949400522B42D0562B01D03B2BF7D1A08813215D
:1094A400FFF7D2FF15E0214B21482249C01AC0081A
:1094B400000440F00300FDF7A7FA0720FFF7A0FE21
:1094C40008B1FDF799FD1C4BA1881C48198001F0D7
:1094D4006FFF0028DAD0FDF78FFDD7E7134B144850
:1094E4001749C01AC008000440F00300FDF78CFAC5
:1094F400114B4FF6FF721A80C8E7002301A9808838
:10950400ADF80430FFF7A8FFE3E70B4800231A4641
:1095140085210088FFF79EFFDBE7074800231A46F2
:1095240019460088FFF79AFFD3E700BFE8FE03005F
:1095340010FF030000070400BE2A0020503600205C
:109544000A0704000D4B4A881B889A4214D10A88E2
:1095540040F677239A420FD18B88094A09480A4971
:10956400033B9BB21380094A801AC00800041A46C0
:1095740040F00300FDF755BA704700BFBE2A002033
:10958400BC2A002010FF030017070400E8FE0300B4
:1095940008B503784BB9054B3B211888FFF754FFF6
:1095A40018B1BDE80840FDF727BD08BDBE2A00205C
:1095B400F7B50378012B33D0022B31D073BB1A4C8F
:1095C4001A4D20782844FDF767FE23780133DBB277
:1095D4001D44237015F8012C0A2A05D00D2A03D046
:1095E400134A12889A4219D8012B15D9114D0F4EDE
:1095F400114F2378ADF806300DF106022B88314661
:10960400384602F04BF8082806D01328F1D0052874
:1096140002D008B1FDF7F0FC0023237003B0F0BDC5
:109624004068FDF7E9FCF9E7DE3300209C330020B5
:10963400BC2A0020BE2A0020C02A00202DE9F041C7
:109644000578064695BB1A4C1A4BDFF86C80E41A71
:10965400E408240444F00104B28A95420AD333692D
:10966400134413F8013C0D2B16D10A20FDF72AFEF2
:109674001128F9E73369585DFDF724FE074648B120
:109684001128F7D0024641462046FDF7C1F9384675
:10969400FDF7B2FC0135DFE7336918783138C3B21E
:1096A400032B03D8BDE8F04100F064BABDE8F081B3
:1096B40010FF0300E8FE03003307040008B548B1B7
:1096C400032814D10220FFF79BFD80B1BDE80840B8
:1096D400FDF792BCFFF794FD08B1FDF78DFCFFF791
:1096E40083FE08B1FDF788FCFFF7BAFEEDE708BD7D
:1096F400FDF782BC08B50849084801F045FD08B1EA
:10970400FDF77AFC0548452101F052FD18B1BDE88A
:109714000840FDF771BC08BD4995020038360020A9
:1097240000B5724D0FCDB1B005AC0FC495E8030080
:109734006F4B704A01934FF4807384E80300CDE9C2
:10974400032302936C4A072301A905A8FDF74CFDE6
:1097540008B1FDF751FC4FF400410020FCF79EFFD7
:1097640008B1FDF749FCFCF7CFFE15F093FF08B1F3
:10977400FDF742FC61490320FFF74EFD08B1FDF7F8
:109784003BFC05A90020FFF73FFE08B1FDF734FCC0
:10979400FEF744F908B1FDF72FFC02F011F808B107
:1097A400FDF72AFC002305A90120059302F0D0F857
:1097B40008B1FDF721FC05A802F09AF908B1FDF7FC
:1097C4001BFC11234E488DF8043016F012FB4C4953
:1097D40082B201A8FFF73CFE08B1FDF70DFC0021A1
:1097E400082205A816F0B0FA46494FF0C87305A838
:1097F400CDE90513FFF72AFE08B1FDF7FDFBFFF7DE
:1098040079FF414B4148059305A901F0BFFD08B11B
:10981400FDF7F2FB042200210DEB020016F094FA8E
:109824003B4B3C48019301A901F0BEFE08B1FDF792
:10983400E3FBAC22002105A816F086FA02238DF87A
:1098440014304FF4C063344AADF816300123ADF838
:10985400603019928DF890304FF448720023CDE9AE
:1098640027232E482E4B2E9305A900F0CAFF08B1DA
:10987400FDF7C2FB2948012100F0C0FF1C22002192
:1098840005A816F061FA00234FF42032CDE9053221
:10989400ADF822304FF470228DF82430214B07921A
:1098A4000A930322204B8DF8202005A80B9301F086
:1098B40069FA08B1FDF7A0FB00F02CFA1B4B1C4819
:1098C4001C49C01AC008000440F00300FDF79CF8CE
:1098D4001248032101F014F808B1FDF78DFB00F0E4
:1098E40027FAFCF735FFFEF7AFF8FAE79407040010
:1098F4005C3600205C370020B59502006D940200B0
:109904005E0704007800C800699402005036002005
:1099140041960200C02A0020B82A0020E03300202B
:10992400C196020095950200F5960200E8FE030038
:1099340010FF03006A0704000448054B0549C01AD8
:10994400C008000440F00200FDF75EB810FF0300F9
:10995400E8FE0300C707040030B52D4B14461B680E
:10996400526887B00D4603F4804352B3F3B1294BD8
:109974001B68032B1ADD28482F2116F0A4F9B8B16F
:109984002F21254816F09FF9411C244B6268D3F817
:109994000435049262780392227802926A880192D2
:1099A4001F4A009204209B220AF0E2F807B030BD5F
:1099B40019485C2116F087F908B15C21E1E71649E2
:1099C400E3E7002BF2D0134B1B68032BEEDD1248A8
:1099D4002F2116F078F990B12F210F4816F073F962
:1099E400411C0E4B2278D3F8043502926A88019206
:1099F4000C4A00920420A0220AF0BAF8D6E70648DE
:109A04005C2116F060F908B15C21E6E70249E8E759
:109A14003C2B0020382B0020E607040000100140F6
:109A2400380804008A0804000CF04CBB38B516480A
:109A3400164B174C1749184DC01AC008000440F0C3
:109A44000300FCF7E1FF0023012120462563A36204
:109A5400A38514F0C7FB20B1104A4FF48671FDF7BB
:109A6400D8FA00230E4865660221E365A4F8603045
:109A740014F0B8FB30B1BDE83840084A4FF48671A1
:109A8400FDF7C7BA38BD00BF10FF0300E8FE0300AE
:109A94005C380020B3080400140A0400E60704003C
:109AA4009038002008B503781C2B0DD1074B0848CB
:109AB4000849C01AC008000440F00300FCF7A4FFE2
:109AC400BDE8084011F038BE08BD00BFE8FE030041
:109AD40010FF0300D308040013B50B4B0B4C0C49C7
:109AE400E41AE408240444F003042046FCF78CFF41
:109AF40001A805F005F8BDF8042006492046FCF746
:109B040087FF02B010BD00BFE8FE030010FF030092
:109B1400EC08040006090400012A0CD0022A11D022
:109B2400BAB90E480E4B0F49C01AC008000440F0E1
:109B34000300FCF769BF0948094B0B49C01AC00868
:109B44000004F4E70548064B0849C01AC00800049D
:109B5400EDE7074A8F210320FDF75BBA10FF0300EE
:109B6400E8FE03001D0904003D0904005D0904002A
:109B7400E607040070B5454B454C4649E41AE40831
:109B8400240444F003040546024686B02046FCF74C
:109B94003FFF032D06D8DFE805F002340234012329
:109BA4008DF80C303C4A13788DF80D30591C117027
:109BB40064233222CDE90432384B1B68590419D589
:109BC400374B1B68032B15DD36482F2116F07BF825
:109BD400C8B12F21334816F076F8411C324B9DF85A
:109BE4000C20D3F804350192304A00920420D1228B
:109BF40009F0BEFF012D0FD9AB1E012B2ED906B0E3
:109C040070BD0023CCE727485C2116F05CF808B14E
:109C14005C21DFE72349E1E7254E308804F03CF876
:109C240004AA03A9304614F007FB082826D80828FC
:109C340026D801A353F820F0039C0200859C02005F
:109C4400859C0200859C02006F9C0200859C02009A
:109C5400859C02007B9C02006F9C0200022304AAE4
:109C640003A9144814F034FBDFE713492A462046BD
:109C7400FCF7CEFEC3E711492A46F8E71128F4D0D1
:109C8400084AFC21FDF7C5F9B9E700BFE8FE030067
:109C940010FF03007F090400C53800203C2B00207E
:109CA400382B0020E607040000100140920904004C
:109CB4005C38002090380020AD090400C409040079
:109CC40000B58BB00021202201A816F03DF8012335
:109CD4008DF8043007238DF8073006238DF80C30F7
:109CE400084B05930849094B099301A811F0F0FCAE
:109CF40020B1074A4FF48D71FDF78BF90BB05DF875
:109D040004FB00BFA99A0200C4380020319A020063
:109D1400E607040008B5054A04214FF4C04009F0E1
:109D24000BFFBDE80840FFF7CBBF00BF113B0300AA
:109D340030B5194B1B7887B083B9184D0FCD6C46DD
:109D44000FC495E8030084E80300684615F0E8FDB5
:109D540020B1134A4FF49971FDF75BF90CF0EAF95D
:109D6400104C114B1149E41AE4082404054644F04C
:109D74000300FCF749FE1022294644F00500FCF7D5
:109D84005BFE11F019FC20B1054A40F23911FDF7D0
:109D940040F907B030BD00BFC4380020FC090400FE
:109DA400E607040010FF0300E8FE0300EE090400C8
:109DB4000369C1688B429DBF8268D21802F1FF32E9
:109DC40003F1FF3394BF501A581A70472DE9F84332
:109DD400D0E902940546A9EB040840689045204464
:109DE4000F46144404D915F086FFEC60BDE8F883EF
:109DF4004246A4EB090415F07EFF6868224607EB8F
:109E04000801F0E72DE9F843C56806468946174678
:109E14004FF000083469B3687068A54228BFE4189D
:109E2400013C621B5C1BBC4228BF3C46944228BFD9
:109E3400144649462844224615F05DFFB36825447C
:109E4400AB4208BF00253F1BA044A144F560E1D10B
:109E54004046BDE8F883000010B5114C114AA261D8
:109E64000223C4E90433104BE361A2644FF400738A
:109E74000E4A0F492362E26400231022E01DA3620C
:109E84006362E362A3656365E365226515F08FFF92
:109E94000849204615F08BFF2023A37110BD00BF95
:109EA400C8380020300A040050390020403900200E
:109EB400390A04003D0A0400F8B5184C182300FBC5
:109EC400033503FB00402544C46A012C0F461646A3
:109ED4000FD0022C1AD0F4B92846FFF769FF864246
:109EE40005D8324639462846FFF770FF34462046E7
:109EF400F8BD2846FFF75CFF8642344628BF044677
:109F0400224639462846FFF761FFF0E72846BDE8B8
:109F1400F840FFF777BF0024E9E700BFC838002006
:109F240073B50E4B1B7804460D4616460BB9FFF766
:109F340093FF00230DF107008DF80730FDF7EAF9D0
:109F4400324629462046FFF7B7FF04469DF807002E
:109F5400FDF704FA204602B070BD00BFC8380020E7
:109F6400FFF77ABF826810B504464068531C8342E9
:109F740005D820688154A360E3680133E360D4E921
:109F840001329A420BD121682069FFF7C9FFA36807
:109F9400984215BF4FF0FF330023E360A36010BD68
:109FA4002DE9F84F9946DDE90A43164605468846E9
:109FB4000A464FF0010AB24212D2CA4538BFCA4615
:109FC40013F0010B01D184B90024EB68002B48DBAA
:109FD4000127B9F1010F1FD909F1FF397743F8E7D8
:109FE4000AF1010AB2FBF6F2E5E79B0712D5B9F1D3
:109FF400000F0CBF30272027A245E6D23946284659
:10A00400FFF7B0FFEB68002B04F1FF34DDDB002C1D
:10A01400F2D1D9E72027EFE7B8FBF7F39E42DDD969
:10A02400DFF84890B8FBF7F3284619F8031007FB4C
:10A034001388FFF797FFEB68002B03DBB7FBF6F3FE
:10A04400B74210D2BBF1000F0BD054B1A24508D2D5
:10A0540020212846FFF786FFEB68002B04F1FF342C
:10A06400F3DABDE8F88F1F46DCE700BF440A0400BA
:10A074002DE9F04F9BB00AAB0E4605934021002317
:10A08400CDE90613CDE90830039015464FF00A0ACE
:10A0940016F8011B39B9089B002B00F30B810898B3
:10A0A4001BB0BDE8F08F252940F0B5804FF0000BC0
:10A0B40007E0302B0FD14BF0020B01E04BF0010B0A
:10A0C4000E46314611F8013B2D2BF7D0F1D8232B46
:10A0D40011D02B2B0CD00024314611F8013BA3F1F5
:10A0E400300009280AD80AFB0434303C0E46F3E752
:10A0F4004BF0040BE4E74BF0080BE1E72E2B0FD1F8
:10A104000E464FF00009304610F8011BA1F130074C
:10A11400092F07D80AFB0913A3F130090646F2E711
:10A124004FF00009304610F8011B01F0FB07682FBF
:10A134000646F8D0782909D86F290BD8632966D048
:10A1440020D8252967D0582900F09480089B002B3B
:10A154009EDAA0E770390829F8D801A353F821F052
:10A16400A9A2020051A1020051A1020089A2020089
:10A1740051A1020067A2020051A1020051A10200F4
:10A1840079A202006429E1D129680F68081D87EAD1
:10A19400E7712860A1EBE7714FF0010809293EDC63
:10A1A400C84538BFC8462CB1002F02DB1BF0040F92
:10A1B40000D0013C1BF0020F02D0B9F1000F04D013
:10A1C4001BF0010F01D17CBB002408990029BDDBE1
:10A1D400002F35DA7F422D2105A8FFF7C3FE089929
:10A1E4000029B3DB0BF00301022904D1B9F1000FFC
:10A1F40001D154BB002408990029A7DBCDE9004B09
:10A204004B460A22394605A8FFF7CAFE9EE72B688B
:10A214001A1D19782A6005A8FFF7A4FE96E708F12D
:10A224000108B1FBFAF1B9E7A045CED2202105A877
:10A23400FFF798FE0899002904F1FF34C3DAC4E754
:10A244001BF0040FCBD02B21C6E7A045D3D230217D
:10A2540005A8FFF787FE0899002904F1FF34C8DA3E
:10A26400C9E72968CDE9004B081D28604B460A223E
:10A274000968C8E72968CDE9004B081D28604B46EA
:10A284001022F5E72B681A1D2A601C6814F8011BBC
:10A2940000293FF45BAF05A8FFF764FE089B002B81
:10A2A400F4DA53E729680B1D2B6000220823CDE95B
:10A2B4000032E5E7079A1AB103980AA9FFF730FEBE
:10A2C400DDE9072313440893E9E600BF0EB403B5A0
:10A2D40003AB01AA53F8041B0193FFF7C9FE02B0B4
:10A2E4005DF804EB03B070476DDF704779DF7047AA
:10A2F4007DDF704764DF70472DE9F04F85B000259E
:10A304000E9CBDF83CB0B4F800A0019107469046FD
:10A314001E46A9463A884A450DDC45B12388013BCF
:10A32400A3EB0A039BB2FF2B3AD806F80A300020AD
:10A3340005B0BDE8F08F7A6852F829000390002236
:10A344000DF10B0103A8FFF7D5FF0028F0D19DF80C
:10A354000B20424521D12288002D14BF0020022069
:10A3640002EB0801014459451ADC3DB9013292B2AD
:10A37400019B2280B35422880132228022880DF16D
:10A384000B01324403A8FFF7B5FF0028D0D1218880
:10A394009DF80B200A442280012509F10109B9E73F
:10A3A4000C20C5E72DE9F341089FBDF8248015462C
:10A3B400CDE90078022204461E46FFF79DFF50B9FE
:10A3C4003346102229462046CDE9087802B0BDE87C
:10A3D400F041FFF791BF02B0BDE8F0812DE9F04FE5
:10A3E40000231788138090F82D3085B006460D465B
:10A3F400144653B3082F01D80C2027E102A8FFF715
:10A4040073FF002840F0228123880822EA5423881D
:10A4140001339BB21B222380EA542088013080B28E
:10A42400208006220DF10901284415F064FC2388DC
:10A434009DF8082006339BB212F0FE0218BF0122D9
:10A444002380EA54238801332380B378FBB1238823
:10A454000433BB42D0D802A8FFF748FF002840F0DD
:10A46400F58023880322EA54238801339BB21922FE
:10A474002380EA542388BDF8082001339BB2E918ED
:10A484002380EA54120A4A70238802332380F27824
:10A494009AB12388D91CB942AED80221E954238841
:10A4A40001339BB201212380E95423880B449BB2DE
:10A4B4002380EA5423880B4423807268AAB123883A
:10A4C400D91CB94298D8022192F90020E954238872
:10A4D40001339BB20A212380E954238801339BB2C0
:10A4E4002380EA542388013323803389002B40F0EE
:10A4F400A180338A5BB1CDE900472B4607220321B3
:10A5040006F11000FFF74EFF002840F09F80338BC8
:10A514005BB1CDE900472B461522142106F1180042
:10A52400FFF740FF002840F09180326A002A40F093
:10A534009080D6F82480B8F1000F30D0B8F80430F9
:10A544002188981C8A1C0244BA423FF655AFFE2863
:10A554003FF652AF03336B54238801339BB2FF227F
:10A564002380EA54238801339BB22380B8F8002067
:10A57400EA54E918120A4A702088023080B2208016
:10A58400B8F804205AB1D8F8081000296BD0284430
:10A5940015F0B1FB2388B8F804201344238096F8FF
:10A5A4002C30002B40F09A80307800284ED033882D
:10A5B400012B58D0228802F1020CBC453FF61CAF97
:10A5C400012805D17378023313449F42FFF414AF7A
:10A5D400023FBF1ABFB202A905EB0C00ADF8087028
:10A5E400FFF786FE90BB3178BDF80830022900F0F1
:10A5F400BA8072789A4202D3BB4240F2B2800129F7
:10A6040040F0B380974293B2C0F0AF80ADF8083009
:10A614000821BDF80830FE2B3FF6EEAE2288013348
:10A62400AB542288013292B22280A9542288134466
:10A6340023800BE0CDE900472B460622022106F1D8
:10A644000800FFF7AFFE00283FF453AF05B0BDE8A4
:10A65400F08FB4F800C00CF10603BB423FF6CCAE59
:10A664001188052901D80720F0E76FF4486E01EB43
:10A674000E039BB24FF27D3E7345F4D95388052BEC
:10A68400F1D96FF44860181880B27045EBD94FF6D1
:10A69400FF70814203D0834201D09942E3D805235D
:10A6A40005F80C30238801339BB212212380E9542E
:10A6B400238801339BB223801188E954E818090ADE
:10A6C4004170238802339BB223805288EA54E918EC
:10A6D400120A4A702388023323802AE7B36A002BC4
:10A6E400C1D04FF000094FF00C0A4FF0160B96F84A
:10A6F4002C305FFA89F293427FF656AFB16A0AFBB7
:10A7040002F201EB0208B8F80430981CFE283FF668
:10A7140073AE208803332B54238801339BB22380E8
:10A7240005F803B0238801339BB223808A5AEA5484
:10A73400E918120A4A702088023080B22080B8F8E2
:10A7440004205AB1D8F8081000298CD0284415F0F8
:10A75400D2FA2388B8F804201344238009F10109AC
:10A76400C5E7092155E7BB42FBD9ADF808704FE7AF
:10A7740070B5C0B14AB116880024B44203D3051998
:10A784006D789D4208D0A14201D800200BE0055D00
:10A7940001352C44A4B2F0E7A142F6D9A31C1380DE
:10A7A400005D013880B270BD13B513460022ADF8C8
:10A7B40006200DF106020446FFF7DAFF10B1BDF8DA
:10A7C4000630E01802B010BD72DF704773DF7047C7
:10A7D40038B5012204460D46B0F83812D0F83402D8
:10A7E400FFF7E2FF00B1057004F13C0204F50D71BE
:10A7F40004F15400BDE83840FFF7E6BF80F830109C
:10A804007047F8B504460F46002975D0002873D068
:10A8140091F87A301BB191F89830002B6ED1D7F8AB
:10A82400A030042B6AD0D7F89C30042B66D04FF0AC
:10A83400000C84F802C007F178060FCE251D0FC561
:10A844000FCE0FC596E8070085E8070084F830C0EE
:10A85400D7F8A4306363D7F8A830A3634FF6FF7525
:10A8640004F50D73C4F84432A4F848520722614633
:10A8740004F24A2015F068FA23780BB984F854508E
:10A8840094F82430002B14BFEE231F2304F1550148
:10A89400C4F83412A4F8383204F50E723846FFF7BF
:10A8A4009DFD40BB94F82430002B14BFEE231F23DE
:10A8B40004F24311C4F83C12A4F8403204F51072B7
:10A8C40007F13C00FFF78AFDA8B9A369A4F8483052
:10A8D4004FF480730125A4F8503063692064014665
:10A8E40084F83C50636404F13C0204F15400FFF723
:10A8F4006BFF00B92570F8BD0E20FCE70720FAE7CE
:10A90400F8B5077804460D46002F00F0048100F2E4
:10A914004A26817007220021304615F015FAE38893
:10A9240013B1A378012B04D0E3794BB1A378022BA4
:10A9340006D1636BA3B1012284F851220820984701
:10A94400334604F5147113F8012F12B99942FAD160
:10A9540017466B1E032B52D8DFE803F0050B0F12CA
:10A9640084F85132ECE7A3791BB194F8243003B98D
:10A974005FB9E3790BB1002F43D1237A002B42D185
:10A98400637A002B0CBF00250425636BA570002B94
:10A994003BD0033D012D38D86279002A35D094F894
:10A9A400522292BB84F85422012284F853220720B5
:10A9B400984704F13C0518220021284615F0C4F9F3
:10A9C400E36A94F82420581E0121022828BF0B466C
:10A9D40084F83C1084F8513032B1884296BFA36A9F
:10A9E40084F8521084F85230A178002384F850304F
:10A9F40004291BD8DFE801F0770D22355900002522
:10AA0400C3E70225C1E70325BFE7002384F85332D7
:10AA1400CFE7C4E91063C4F844320223012284F866
:10AA24003C30802384F83120A4F84830A378002BEC
:10AA34005CD1636B002B6AD1002067E00223002AFB
:10AA440084F8313014BF0723032384F83C3023698E
:10AA5400A4F848300023C4F84432E36826646364ED
:10AA6400E4E763696364A369A4F8483012B1062378
:10AA740084F83C306379B3B194F852329BB994F8BA
:10AA8400543283B1022384F8503004212046FFF766
:10AA94009FFE0028CAD1052384F8313004F50D73D4
:10AAA400C4F84432C2E70323F6E7E3696364236A24
:10AAB400A4F8483012B1062384F83C30637983B19A
:10AAC40094F852326BB994F8543253B1022384F897
:10AAD400503004212046FFF77BFE0028A6D1062330
:10AAE400DAE70423D8E784F831309FE7D4F8441236
:10AAF4002A4604F15400FFF767FE38B994F8301081
:10AB040094F85400FFF762FE002892D0F8BD94F840
:10AB14003100984790E70820F8E70388112B10B517
:10AB24000C460AD0262B1FD0102B05D1C37B012B3A
:10AB340002D18388A1F8483210BD0022838881F8AD
:10AB44005222B1F848229A42F6D10B79002BF3D164
:10AB540001212046FFF7D4FE0028EDD0A36B002B83
:10AB6400EAD0BDE810401847037A013B012BE3D833
:10AB7400897805230131B1FBF3F303EB8303C91A8D
:10AB8400C9B2E6E7704775DF704776DF70477ADF52
:10AB940070477BDF70470000034B1A8882420CBF6A
:10ABA40018460020704700BF6C3B0020024B9B6995
:10ABB40003B11847704700BF503B002073B585B2FE
:10ABC4002846FFF7E9FF044670B1164E027A337B3C
:10ABD4009A420BD200F10A012846FFF7D4FFE8B1EC
:10ABE400112801D0FFF7E2FF02B070BD0023037209
:10ABF400337C43B13B212846FFF7C7FF30F00803FD
:10AC040001D0FFF7D3FF7369002BEDD000228DF83C
:10AC14000420ADF8065001A89847E5E7237A0133EC
:10AC24002372E1E7503B002037B50B46497A0F4ABF
:10AC340071B9D2E901141D7A0246002D18BF2146CC
:10AC4400586814F093FD08B1FFF7B0FF03B030BDAE
:10AC5400002119725369002BF8D00122ADF80600C7
:10AC64008DF8042001A89847F0E700BF503B00206E
:10AC74004B8802889A4213D842889A4210D380881B
:10AC84008A8840F2F313984294BF031AC31A93427A
:10AC940006D800F2F310904234BF00200120704720
:10ACA400002070470388122B70B5014659D004D890
:10ACB400102B1ED0112B44D070BD502BFCD12F4B28
:10ACC400C288DB899A42F7D1038A022BF4D18688A1
:10ACD4003046FFF761FF05460028EDD001F1120070
:10ACE40000F05DF938BB686814F088FD0028E3D0F3
:10ACF40009E0C37B012BDFD14FF6FF70FFF74CFF58
:10AD0400054620B90420BDE87040FFF74FBF1C4A38
:10AD14008E880680002303721368C0F80A305368D3
:10AD2400C0F80E3010310A30FFF7A2FF134B6872DF
:10AD3400DB89002BC0D129463046BDE87040FFF7BF
:10AD440073BF8088FFF728FF04460028B4D040680A
:10AD540014F054FD08B1FFF729FF4FF6FF73238069
:10AD6400AAE786883046FFF717FF05460028A3D0D8
:10AD740008310A30FFF77CFF6872DCE7503B0020A3
:10AD8400803B0020F8B5064648B305460FCD154F65
:10AD94003C460FC495E8070084E807003068124C6D
:10ADA4003C60B0B1FFF7F3FEC0B9326813682360AA
:10ADB400536863600D480E4A4FF6FF7303800D4BD2
:10ADC40040F8043F002114F0BFFC002818BF032002
:10ADD40004E02046FFF7DDFE0028EBD0F8BD0E208E
:10ADE400FCE700BF503B0020803B00206C3B002070
:10ADF400C1AB0200883B002073B50191019C06465B
:10AE04006CB100252C46294601A8FCF7D0FA18B1EC
:10AE140006EB440301349D800135142DF3D13046F3
:10AE2400346002B070BD00002DE9F04703888488C7
:10AE3400112B8CB005463CD01A2B3FD0102B17D1C8
:10AE4400284EB368DB43009371686846FCF7DBFA6D
:10AE5400009901A8FFF7D0FF0DF108094FF0000891
:10AE6400019B984507D3132C13D90420FCF7C4F88D
:10AE74000CB0BDE8F08739F802AB00270137514622
:10AE840006EB8700FCF789FA1D2FF7D108F10108BA
:10AE9400E6E715482146FCF777FA14482146FCF703
:10AEA40073FAEB7B012BE3D011482146FCF76CFAD3
:10AEB400DEE70D482146FCF770FAD9E7037A0D481E
:10AEC4001F2B4FEA1315214606D9FCF75DFA022D14
:10AED40009482146EAD1EEE7FCF75FFA0648214625
:10AEE400E9E700BFA83B0020B03B0020AC3B0020BA
:10AEF400B43B0020B83B0020BC3B00201328014693
:10AF040002D80248FCF753BA00207047AC3B00203B
:10AF140010B50446FFF7F2FF002814BF20461420A2
:10AF240010BD70B50546164608460AB90E2070BD18
:10AF340000231360002DF9D02B68002BF6D0EB888A
:10AF440013F003040ED1FFF7E3FFC0B214280BD0B3
:10AF54002B7983420AD9EB882A6800FB03203060EE
:10AF64002046E4E70720E2E70520E0E70420DEE7E7
:10AF7400AADF7047002301380B70042806D8DFE8E5
:10AF840000F00306080A0C0011230B7070472123FC
:10AF9400FBE73123F9E71223F7E72223F5E70078EB
:10AFA40000F001007047F0B58B7891B0012B0C468E
:10AFB40038BF01238DF80E3005460B88ADF80C30F0
:10AFC400002116466846032214F0BEFE607C6946E2
:10AFD400FFF7D0FFA07C0DF10101FFF7CBFFE27B6F
:10AFE400237B217D43EAC203227C43EA02139DF8BA
:10AFF4000220002922F0190203F0190314BF0221D0
:10B004000121134361F342031C22002109A88DF896
:10B01400023014F099FE637B13F0300F15D002AFA9
:10B0240003220021384614F08FFEE07C0DF1090163
:10B03400FFF7A0FF11238DF808309DF80A300E9712
:10B04400012262F342038DF80A30637B8DF82430C9
:10B054001422A37B8DF82530002104A814F074FE7B
:10B0640003AB0493A388ADF81C30A368CDF814D0C7
:10B074001BB1E288ADF818200893A369002B31D0E6
:10B0840001AF03220021384614F05EFEA3691A883A
:10B09400ADF82C205A88ADF82E205A680D97187BED
:10B0A4000A923946FFF766FFA3690DF10501587B43
:10B0B400FFF760FFA269917A137A43EAC103D17A58
:10B0C400927B43EA01139DF80610002A03F019034A
:10B0D40021F0190114BF022201220B4362F342033F
:10B0E4008DF80630E36903B10C93334604AA09A929
:10B0F4002846FFF73DFF11B0F0BD90DF7047A5DF94
:10B104007047B5DF704700007FB50023ADF8081025
:10B11400ADF80A106A4602A9064603930093ADF8F7
:10B124000430FFF7EAFF054600B3124B124CE41A51
:10B13400E408FCF7EDFC240444F0010403460F4941
:10B1440032462046FBF76DFCBDF80020BDF8023006
:10B1540052EA030103D00A492046FBF762FCBDF81A
:10B1640004201AB107492046FBF752FC284604B0D4
:10B1740070BD00BFE8FE030028FF0300540A04006A
:10B184009E0A0400DD0A040080B14FF045130360F9
:10B19400FB2303714523C3801723038141F6FB324C
:10B1A4000023016143818281184670470E20704755
:10B1B40030B1A1F117032E2B04D801800020704771
:10B1C4000E2070470720704713B5034680880C464D
:10B1D400B8B91A88242A00F0968014D8112A71D09C
:10B1E400232A00F09E80102A3BD0A37A4BB1E18839
:10B1F4000020FFF784FF002840F099804FF480730B
:10B20400638102B010BD3A2A65D0552AEDD1DB889E
:10B21400C988A072172B38BF17238B4228BF0B464F
:10B224002381FFF76EFF60B1FCF772FC484B49497C
:10B23400024649481B1ADB081B0443F00100FBF7D4
:10B24400E7FBE37A002BD0D12369002BCDD040F665
:10B25400772200922289ADF8042069462046984757
:10B26400C3E7DB7B0A790A73012B13D0022B14D0BA
:10B27400E18823898B4205D20020FFF740FF70B993
:10B284000123E372217B637B8B42AED20020FFF764
:10B294003BFFAAE70B88E380EAE74B88FBE711282A
:10B2A40002D10123A372EDE7FCF732FC284B2B49B2
:10B2B400024629481B1ADB081B0443F00100FBF774
:10B2C400A7FBDFE74523CB8017230B8141F6FB3334
:10B2D40048818B8189E75B89CA88934228BF1346DA
:10B2E400172B0A6938BF17230B814AB1C97A39B1C0
:10B2F40040F677210091ADF8043069462046904726
:10B304000023638171E71A7A0B694A73002B3FF4B7
:10B314006CAF4DF67A218DF8050000918DF804206C
:10B324009BE7197A237B994228BF1946AFE7112876
:10B334003FF467AFFCF7ECFB054B084902460648AF
:10B344001B1ADB081B0443F00100FBF761FB58E701
:10B3540028FF0300640B0400E8FE0300330B040021
:10B36400B0DF704766DF704710B50021044640889F
:10B37400FFF7F8FF034608B9237210BD112801D165
:10B384000123F9E76368BDE81040184760B159B17B
:10B394000378DE2B0AD00B684360DE2303704FF67C
:10B3A400FF734380002070470E20704708207047C9
:10B3B40028B10378DE2B04D14180002070470E2091
:10B3C400704708207047F0B5054685B00C46F1B1CA
:10B3D400E8B10B78DE2B1AD182884B889A4204D1CB
:10B3E4000B7A13B10846FFF7BFFF2B88112B32D01D
:10B3F400512B0ED0012B0AD12B7A012B07D1A9880E
:10B404006288914203D123722046FFF7ADFF05B055
:10B41400F0BDAE886388B342F9D1AF79022FF6D17B
:10B42400AD7B2B1F022BF2D800211022684614F0AA
:10B434008BFC052D14BF4FF4C073002369463046BE
:10B444008DF80070ADF80430FFF78AFF0028DED0D5
:10B4540063689847DBE76388AA889A4204BF4FF67B
:10B46400FF736380D3E7A8DF7047ADDF7047AEDFBB
:10B47400704762DF704770B505468AB00C460029F4
:10B4840062D0002860D00388502B37D0572B72D05D
:10B49400102B59D181886069002601AA0196FFF713
:10B4A40040FD082231460DEB020014F04DFC02234E
:10B4B400218AA888CDF80CD002AA0293FFF7D5FF01
:10B4C400002841D1A369002B3ED00398FFF767FD04
:10B4D400002839D0019B0BB101221A7018220021D7
:10B4E40004A814F031FC02238DF81030AB88ADF8B9
:10B4F4001830019B05940793A36923E08188606950
:10B5040002AAFFF70EFD1822002104A814F01CFC67
:10B51400AB882189ADF81830EB88029A05949942DA
:10B52400079218D12E8A022E15D16AB105F11200A4
:10B53400FFF735FD029B48B101221A708DF81060A7
:10B54400A3690BB104A898470AB070BD187003230F
:10B554008DF81030F4E7A2899A42F5D1A369002B43
:10B56400F2D000228DF8102005F1120208922A8AE6
:10B57400ADF82420E6E78188606902AAFFF7D1FCD0
:10B5840001460028E0D1029B1B78002BDCD0182256
:10B5940004A814F0D9FB01238DF81030AB88ADF862
:10B5A40018300594029BA6E7F0B53A4B8FB002AD74
:10B5B40004460A4603F1100C2F46186859682E46B3
:10B5C40003C6083363453546F7D1002C5FD0002A03
:10B5D4005DD01368A36121463846FFF74AFF00286F
:10B5E40053D12246012512F8023B8DF8063001A9F9
:10B5F4002846ADF80450FFF736FF002845D1014630
:10B60400202206A814F0A0FB22460223ADF818302D
:10B6140012F80C3B8DF81A30BDF824301E4E6088A9
:10B62400079623F44F6323F00F0343F440632B4343
:10B6340006A9ADF824308DF829508DF82A50FFF76B
:10B64400B2FC10BB0146202206A814F07DFB224662
:10B654000323ADF8183012F8043B8DF81A30BDF806
:10B6640024306088079623F4875323F01F0343F4A0
:10B6740080532B43ADF8243006A940F201138DF812
:10B684002950ADF82A30FFF78EFC0FB0F0BD0E2024
:10B69400FBE700BFA80B040042000100F0B50F4611
:10B6A40087B016461C46054618B3406901AA1946D8
:10B6B400FFF737FCD8B94FF6FF739C421BD0019BB0
:10B6C400CBB11B78CBB13388422B18D8014610225A
:10B6D40002A814F039FBAB88ADF8083002A90123A5
:10B6E4002046CDE904678DF80A30FFF7C0FE07B0A5
:10B6F400F0BD0E20FBE70520F9E70820F7E7072057
:10B70400F5E710DF704711DF7047000013B50446FA
:10B7140009496846FCF7C7F9019808B902B010BD99
:10B72400D0E900212046904718B16846FCF7C5F9D6
:10B73400F2E71120F2E700BFC40B040013B504467E
:10B7440007496846FCF7AFF9019B0BB902B010BD7D
:10B754002046D3E9002190476846FCF7AEF9F3E7A9
:10B76400DC0B0400064B9A6822B11A6822F48002AA
:10B774001A607047034B4FF48002C3F8802070476F
:10B784001832002000E100E00B4991F816335A0901
:10B79400EC231341DB0706D5084B9A683AB94FF4FA
:10B7A40080030B60704742F20200FBF725BC1A6865
:10B7B40042F480021A60704700E100E01832002071
:10B7C400F7B5194F3C7864BB184E012520463570F7
:10B7D400FFF79CFF112821D02046FFF7AFFF144B41
:10B7E4008DF80340186801900DF10300FBF792FDFA
:10B7F400104901A8FFF785FF0446B0FA80F040091C
:10B8040038709DF80300FBF7A9FD3CB90A4B34706E
:10B814001C70FFF7B9FF2846FFF790FF204603B0DE
:10B82400F0BD0824FAE700BF213C0020203C0020A2
:10B83400C00B040031700200223C0020F7B5154F04
:10B844003B781BB3144E01203070FFF75FFF1128C3
:10B854004FF000051CD00220FFF770FF0DF1070028
:10B864008DF80750FBF756FDFFF74DFF04469DF892
:10B8740007003D70FBF772FD2CB93470FFF772FFBF
:10B884000320FFF75BFF204603B0F0BD0824FAE76E
:10B894002C46F8E7213C0020203C0020054B1B7877
:10B8A40033B1054B1B780BB1FFF7C8BFFFF788BF57
:10B8B40008207047203C0020213C0020014B1878D0
:10B8C400704700BF213C002007B508496846FCF7D3
:10B8D400EAF8019B13B903B05DF804FBD3E9002037
:10B8E40090476846FCF7E9F8F3E700BFD00B040083
:10B8F400FFF7EABF60DF704769DF704761DF7047B9
:10B9040030B5114B1B78A9B0E3B1104D94240DF15F
:10B91400020103A8ADF80240FFF7F0FF70B9294611
:10B9240001A8FCF7C0F8029B002BF0D003A8D3E9D0
:10B934000021904701A8FCF7C0F8F4E7052801D0DE
:10B94400FBF75AFB29B030BD233C0020640E0400F1
:10B9540030B5054685B00C46002900F0B5805B4B38
:10B964000B600C22002101A814F0EEF901238DF8DC
:10B97400063022688DF80450062301A92020ADF872
:10B984000830FFF7B9FF60B1FCF7C2F8504B5149DA
:10B99400024651481B1ADB081B0443F00100FBF765
:10B9A40037F80C22002101A814F0CEF901238DF8F8
:10B9B40005302268002301A94020ADF80630FFF7C6
:10B9C4009BFF60B1FCF7A4F8414B4449024642484E
:10B9D4001B1ADB081B0443F00100FBF719F80C22C7
:10B9E400002101A814F0B0F9452322688DF8045011
:10B9F40001A92320ADF80630FFF77EFF60B1FCF704
:10BA040087F8334B3649024633481B1ADB081B04BC
:10BA140043F00100FAF7FCFF0C22002101A814F006
:10BA240093F9012022688DF8040001A9FFF764FF4F
:10BA340060B1FCF76DF8264B2A49024626481B1ACA
:10BA4400DB081B0443F00100FAF7E2FF0C2200219B
:10BA540001A814F079F94FF4B0632268019301A9A5
:10BA6400A120FFF749FF60B1FCF752F8184B1E49BB
:10BA7400024619481B1ADB081B0443F00100FAF7BD
:10BA8400C7FF0C22002101A814F05EF99DF80430D0
:10BA9400226843F0010301A9A0208DF80430FFF7C8
:10BAA4002BFF034668B1FCF733F8094B0F490246F4
:10BAB40009481B1ADB081B0443F00100FAF7A8FF2E
:10BAC4000023184605B030BD0E23FAE7982A00205B
