:020000022000DC
:1060000000F003206D630200556302005763020035
:10601000596302005B6302005D6302000000000040
:106020000000000000000000000000005F630200AC
:106030006163020000000000636302006563020008
:106040006763020067630200676302006763020020
:106050006763020067630200E56E02006763020087
:106060006763020067630200FD800300676302004C
:1060700067630200676302006763020067630200F0
:1060800067630200D91604003DBD02006763020089
:106090003D170400676302005DB1030067630200FF
:1060A00067630200676302006763020067630200C0
:1060B0006763020067630200000000000000000048
:1060C00067630200676302006763020067630200A0
:1060D0006763020067630200676302006763020090
:1060E000676302006763020067630200000000004C
:1060F0000000000067630200000000006763020008
:10610000000000000000000000000000000000008F
:10611000000000000000000000000000000000007F
:10612000000000000000000000000000000000006F
:10613000000000000000000000000000000000005F
:10614000000000000000000000000000000000004F
:10615000000000000000000000000000000000003F
:10616000000000000000000000000000000000002F
:10617000000000000000000000000000000000001F
:10618000000000000000000000000000000000000F
:1061900000000000000000000000000000000000FF
:1061A00000000000000000000000000000000000EF
:1061B00000000000000000000000000000000000DF
:1061C00000000000000000000000000000000000CF
:1061D00000000000000000000000000000000000BF
:1061E00000000000000000000000000000000000AF
:1061F000000000000000000000000000000000009F
:10620000344935480A1A02D0072291438D46334952
:1062100033480A1A06D00722914381F309880222E3
:1062200082F314882F483049304A00F042F8304851
:106230003049314A00F03DF830483149314A00F0E8
:1062400038F831483149324A00F033F831483249A0
:10625000324A00F02EF832483249334A00F029F829
:1062600032483349334A00F024F833483349002296
:1062700000F02AF832483349002200F025F832486D
:106280003249091A082902DB0022026041601F48D6
:106290001F49884205D00268043003B4904703BC0C
:1062A000F7E700208646EC4600200021284A904768
:1062B000FEE7884207D0521A05D0037801300B70F0
:1062C0000131013AF9D17047884202D002700130A1
:1062D000FAE7704700F0032000E8032000F00320F5
:1062E00000F0032078360400A02D0020B82E0020F6
:1062F000A4630200A4630200E21B040078360400D9
:10630000A02D0020A02D00200C1D04000C1D040059
:106310000C1D04000C1D04000C1D04000C1D0400C9
:106320000C1D04000C1D0400763604009037040098
:10633000B82E0020B82E0020B82E00206C59002066
:106340006C5900206C5900206C5900206C5D0020B5
:106350000D6A0200FEE7FEE7FEE7FEE7FEE7FEE766
:10636000FEE7FEE7FEE7FEE7704700BF094880470B
:1063700009484FF007018843854608488047084888
:10638000016841F470010160BFF34F8FBFF36F8F5D
:10639000FFF736BF6963020000F0032055B5030024
:0463A00088ED00E0A4
:1063A40041DF70470C4B1B6813F4804F03D00B4B39
:1063B4001B68012B00DC704700B583B0084BD3F891
:1063C4000435084A009285220749022006F08CFD14
:1063D40003B05DF804FB00BF1C2E0020182E002023
:1063E40000100140741D04006B1D040010B586B03C
:1063F4005068E0B11A4B1B6813F4804F03D0194B5B
:106404001B68032B01DC06B010BD174BD3F8043511
:106414004988147852780490039202940191134AA3
:106424000092AC221249042006F05EFDEBE70C4B0F
:106434001B6813F4804FE6D00A4B1B68032BE2DD84
:10644400094BD3F804354988127802920191094A1C
:106454000092B1220649042006F046FDD3E700BFAE
:106464001C2E0020182E002000100140941D040052
:106474006B1D0400E81D040000B583B0012A1ED082
:10648400022A36D03AB1254AA021032015F058F942
:1064940003B05DF804FB224B1B6813F4804FF7D064
:1064A400204B1B68032BF3DD1F4BD3F804351F4A25
:1064B400009293221E49042006F016FDE8E7062206
:1064C40032214FF4F03000F07BFC154B1B6813F4C1
:1064D400804FDDD0134B1B68032BD9DD124BD3F84F
:1064E4000435144A009298221149042006F0FCFC59
:1064F400CEE70B4B1B6813F4804FC9D0094B1B68C4
:10650400032BC5DD084BD3F804350B4A00929C22BB
:106514000749042006F0E8FCBAE700BF281D040080
:106524001C2E0020182E002000100140141E040010
:106534006B1D0400341E0400541E040030B587B0E3
:106544000446574B1B6813F4804F03D0554B1B680C
:10655400032B05DC032C12D8DFE804F00E360E36CC
:10656400514BD3F804350190504A0092C822504947
:10657400042006F0B9FCEDE701238DF814304D4AF0
:106584001378591C11708DF8153032230493642349
:106594000393434B1B6813F4804F03D0414B1B6898
:1065A400032B15DC012C21D9A31E012B49D802236E
:1065B40003AA05A940481AF027FD05469DF81410C2
:1065C4000E2000F0E1FB20E000238DF81430D6E724
:1065D400354BD3F804359DF814200192374A0092C4
:1065E400E3223349042006F07FFCDBE7344D28889E
:1065F4000EF02AFC03AA05A928461AF0C7FC054692
:106604009DF814100D2000F0BFFB112D3ED8DFE8DB
:1066140005F0183D3D3D093D3D27093D3D3D3D3DCE
:106624003D3D3D091E4B1B6813F4804F03D01D4BA9
:106634001B68032B07DC062232214FF4F03000F0F4
:10664400BFFB07B030BD184BD3F8043501941D4A85
:10665400009240F201121649042006F045FCEAE7D4
:106664000F4B1B6813F4804FEBD00E4B1B68032BAE
:10667400E7DD0D4BD3F804350194134A009240F240
:106684000D120B49042006F02FFCDAE7002DD8D0B8
:106694000E4A40F21111284615F052F8D1E700BF16
:1066A4001C2E0020182E002000100140781E04002B
:1066B4006B1D0400212F0020EC2E00208C1E0400F2
:1066C400B82E0020A81E0400C01E0400281D0400CB
:1066D4003038032800D9704708B5FFF72FFF08BDED
:1066E40000B58BB02022002101A81BF013FA01236E
:1066F4008DF8043007238DF8073006238DF80C300D
:10670400084B0593084B0993084901A809F064FF55
:1067140010B90BB05DF804FB054A4FF49C7115F0F9
:106724000FF8F6E7B9680200D5670200202F0020B1
:10673400281D040000B583B01D4A042146F201005F
:1067440006F0B6FB1B4B1B6813F4804F03D01A4BA7
:106754001B68032B13DC1AF0F3FFE0B900F074FBA1
:10676400164800F091FBE0B900F05AFD00F074FD0A
:1067740000F0A0FDFFF7B4FF03B05DF804FB104B7D
:10678400D3F804350F4A00924FF49F720E49042047
:1067940006F0AAFBDFE70D4A4FF4A07114F0D0FF16
:1067A400DCE70A4A4FF4A27114F0CAFFDCE700BF29
:1067B40089CE02001C2E0020182E00204165020004
:1067C40000100140EC1E04006B1D0400281D040091
:1067D40010B582B0194B1B6813F4804F03D0184BCB
:1067E4001B68032B01DC002411E0164BD3F804359D
:1067F400154A009240F221121449042006F074FB59
:10680400F1E7134A4FF4957114F09AFF0134012C07
:1068140012D8104B342000FB04300F4B03630023C9
:10682400836280F82C3080F82D30611CC9B21AF0D4
:1068340077FB0028EAD0E4E702B010BD1C2E00204C
:10684400182E0020001001401C1F04006B1D0400C2
:10685400281D0400B82E0020A41F040000B583B036
:106864000F4B1B6813F4804F03D00E4B1B68032B94
:106874000ADC0322C8214FF4F03000F0A1FA09F039
:10688400F9FE03B05DF804FB074BD3F80435074A5F
:106894000092B8220649042006F026FBE9E700BF6F
:1068A4001C2E0020182E0020001001403C1F040064
:1068B4006B1D040008B503781C2B00D008BDFFF73E
:1068C400CDFFFBE730B587B06421194800F0F6F935
:1068D400184B1B789BB100F00FFE00F037FB09F05A
:1068E400BBFEF8B900214FF4F03000F05EFA02224A
:1068F400C8214FF4F03000F063FA07B030BD6C46A5
:106904000D4D0FCD0FC495E8030084E803006846DD
:1069140000F072F90028DED0084A40F2611114F048
:106924000FFFD8E7054A4FF4B37114F009FFD9E714
:10693400D5660200202F00208C1F0400281D0400AF
:1069440010B5044600214FF4F03000F02EFA04EBA9
:106954008404620032214FF4C03000F031FA10BDDB
:1069640008B500F063FA08BD00B585B0204B1B687C
:1069740013F4804F03D01F4B1B68032B1FDC00F064
:106984006BFC00F097FC03A80FF05EFD184B1B682E
:1069940013F4804F03D0174B1B68032B1ADC00F051
:1069A40045FA00214FF4F03000F0FFF90422C82129
:1069B4004FF4F03000F004FA05B05DF804FB0E4B20
:1069C400D3F804350D4A009270220D49042006F0D4
:1069D4008BFAD4E7084BD3F80435BDF80C200192A8
:1069E400084A00927B220649042006F07DFAD6E785
:1069F4001C2E0020182E002000100140581F0400F7
:106A04006B1D0400741F040008B5FFF793FEFFF725
:106A140059FFFFF7C5FCFCE72B4B1B78002B52D02A
:106A240000B585B0012804D0032845D005B05DF831
:106A340004FB0023029302A9012014F035FA40BBA1
:106A440002A814F08BFA38BB0123039303A90DF1B8
:106A5400060010F077FA10BBBDF806000FF0BEFE7A
:106A64000DF1050110F05CF8E0B90AF0B1FF9DF8F2
:106A7400051000200BF076FAB8B903F041FFC0B955
:106A8400114B00221A70114B1B68002BCED0984773
:106A9400CCE714F047FED3E714F044FED4E714F037
:106AA40041FED9E714F03EFEDFE7784600F0E6FC4D
:106AB400E3E714F037FEE3E714F0C4FA0028B5D096
:106AC40014F030FEB2E77047242F0020282F002056
:106AD40008B5064B01221A70054803F079FF03F04C
:106AE4005BFF00B908BD14F01DFEFBE7242F002056
:106AF400A02D002008B503781C2B00D008BD074B3F
:106B04001B78002BFAD014F0E1FA18B9044803F00A
:106B140063FFF3E714F006FEF8E700BF242F00201C
:106B2400A02D002008B50749074815F09DFA00B1CB
:106B340008BD0323002205490969054815F0B0FA88
:106B4400F6E700BF402F0020AC320020282F0020A1
:106B54007831002008B50378023B082B3FD8DFE8E2
:106B640003F01C05113E3E2C3E3E36001E4B5B6876
:106B7400002B34D0007A002831D01C4A0121117036
:106B840098472CE0184B9B684BB3184A127832B3E1
:106B9400164A00211170984721E0154B1B784BB918
:106BA400114BDB681BB1114A002111709847FFF7A4
:106BB400B9FF14E0FFF78CFF11E010220A4B59696A
:106BC4000C4815F0F7FA50B114F0ACFD07E08168F9
:106BD400C06809F089FC18B9054B01221A7008BD78
:106BE40014F0A0FDF8E700BF282F0020222F00207A
:106BF400232F00207831002070B586B004461F4A48
:106C040003AB07CA03C323F8022B120C1A701C4EE1
:106C140035460FCC0FC594E8030085E8030073697B
:106C240053B3184B009303AB174A1849184815F08F
:106C3400D9F9034610B1184606B070BD154816F0D0
:106C440099FE0146124815F0F9F903460028F2D1DD
:106C5400114817F04FF803460028ECD10E4817F0FE
:106C64007FF801460A4815F0E9F903460028E2D105
:106C7400FFF758FF0346DEE70723DCE7C01F0400E5
:106C8400282F0020596B0200402F0020AC32002036
:106C940078310020602F00202831002008B5064BF1
:106CA4001B681BB906E0044B1B68984712F096FB5F
:106CB4000028F8DA08BD00BFEC32002010B50C46FD
:106CC400144B1860144A012114481AF071FDA0B93C
:106CD400610CE00341F26F7200238B4208BF8242D1
:106CE40010D24FF47A7200231AF0B2FD014600224A
:106CF4000B481AF073FD38B910BD0A4A4A2114F042
:106D04001FFDE5E70521F2E7064A4B2114F018FDC3
:106D1400F2E700BFEC320020A16C02001020040056
:106D2400F0320020CC1F040008B5134B1B6873B16C
:106D34004FF0A042D2F80435104909684B40C2F81C
:106D440004350D4A1368013B136023B108BD0020CC
:106D540014F0E8FCECE70A481AF05EFD4FF0A0429C
:106D6400D2F804350549096823EA0103054909688D
:106D74000B43C2F80435E9E7103300201433002034
:106D8400183300204033002039B1012303FA00F006
:106D94004FF0A043C3F80C057047012303FA00F039
:106DA4004FF0A043C3F80805704721B14FF0A0434A
:106DB400C3F80C0570474FF0A043C3F808057047AB
:106DC4005AB338B51346132900D838BD134A106096
:106DD4005B00013B124A13604FF0A043D3F8043523
:106DE4001840104B186000254C0CC8034FF47A72FD
:106DF400002310F5FA7044EB05011AF029FD014651
:106E04002A4609481AF0EAFC0028DED1034B1A6826
:106E14004FF0A043C3F80C25D7E770471433002084
:106E240010330020403300201833002008B50448F4
:106E34001AF0F2FC0021034B1868FFF7B6FF08BDF7
:106E4400183300201433002008B50D230BE04FF055
:106E5400A04103F5E072032041F8220001229A4088
:106E6400C1F808250133102BF1D9054A0121054841
:106E74001AF09EFC00B908BD14F054FCFBE700BFF7
:106E84002D6D020014200400F0B1104A106000239C
:106E940009E00F4AD25C02F5E0724FF0A0410D48C0
:106EA40041F822000133032BF3D90B4B4FF000427E
:106EB400C3F804230020C3F87C01084BC02283F8E4
:106EC400062340221A6070470E2070473833002092
:106ED400182004000C0003000060004000E100E002
:106EE40010B50024144BC3F87C4103E0D11A14E01C
:106EF4000134E4B2032C1ED84FF0A043D3F810257C
:106F04000E4B195D01238B409343F1D00C4B1B684E
:106F14000C4AD2F80425991AE8D443F2333399423F
:106F2400E6D9084BD3F80425054B1A60064B1B68B9
:106F340020469847DCE710BD00600040182004009C
:106F44003C3300200010014038330020002869D071
:106F54002DE9F043CFB00546334B1B6813F4804F43
:106F640003D0324B1B68032B0BDC2F4B1B6813F431
:106F7400804F03D02D4B1B68032B2ADC4FB0BDE898
:106F8400F08300230F2B0FD8EA5C29490C68100901
:106F94005900265C0DA800F8136002F00F020131BD
:106FA400A25C42540133EDE70DAA00238DF854305E
:106FB40003F1804303F58833D3F8043502921D4A64
:106FC40001921D4A009241221C49042005F08CFFC5
:106FD400CBE71B4BD3F80435AA88E988287A6C7A66
:106FE400AE7AEF7A95F80CC095F80DE095F80E801E
:106FF40095F80F90CDF82C90CDF82880CDF824E0AA
:10700400CDF820C007970696059404900391029248
:107014002A6801920B4A009242220849042005F092
:1070240063FFABE7704700BF1C2E0020182E002022
:10703400202E002064200400782004005220040044
:10704400001001408020040072DF704773DF704736
:1070540074DF70472DE9F047A2B006460F4690460C
:10706400314A02F1040900255560D5602F480378A0
:10707400C3EB431C2E4C644414602E49614491605C
:107084001F2191809181013303F0010303704FF0BC
:107094003C0A5246294613A81AF03CFD06238DF8F3
:1070A4004F30ADF8486001238DF84A30ADF85C30BC
:1070B40012AA1892ADF83C60ADF8408011970DEB20
:1070C4000A021D928DF878305246294668461AF015
:1070D40021FD02238DF800304A46214613A813F0FF
:1070E400D5FD90B9104B03F10C029968684613F072
:1070F400CDFD68B9104A0C491048FFF7A5FF0828D0
:1071040009D070B922B0BDE8F08714F00BFBE9E7B1
:1071140014F008FBEEE7002203490848FFF794FF48
:10712400EFE714F0FFFAEDE7883300204433002042
:107134004833002098330020B02D0020AC2D0020CF
:10714400B0F5202F0AD2074BA3FB0023DB0808B1BC
:1071540003B90123044A9381916070474FF6FF738A
:10716400F5E700BFCDCCCCCCB02D002008B5012173
:10717400054B1878FFF76AFF18B9002004F0E4FA09
:1071840008BD14F0CFFAF8E7AC2D002008B5044B85
:107194001878FFF75DFF00B908BD14F0C3FAFBE7E8
:1071A400AC2D002076DF70477ADF70477CDF7047B4
:1071B40008B514F0B7FA08BD08B503F011FC08BD12
:1071C40000B583B0037823B1012B0BD003B05DF875
:1071D40004FB3B214088FFF7E5FF0028F6D014F0BC
:1071E400A1FAF3E7094B1B6813F4804FEED0084B68
:1071F4001B68032BEADD074BD3F80435064A0092DB
:1072040068220649042005F06FFEDFE71C2E0020EB
:10721400182E00200010014010210400F620040064
:1072240000B583B013F00EFF68B90023019301A9E0
:10723400012013F039FE48B901A813F08FFE40B9BC
:1072440003B05DF804FB14F06DFAEEE714F06AFA8B
:10725400F2E714F067FAF3E700B585B09DF80C3057
:10726400012262F3030362F307138DF80C30112239
:107274000F4903A8FFF79AFF98B97823ADF80430B3
:10728400C823ADF806300023ADF808304FF4C873B6
:10729400ADF80A3001A8FFF787FF28B905B05DF8FB
:1072A40004FB14F03FFAE8E714F03CFAF6E700BFF9
:1072B4003C21040000B58BB07823ADF80430C8231A
:1072C400ADF806300023ADF808304FF4C872ADF8BD
:1072D4000A200693079301AA039240F6CD42049232
:1072E4004FF48032059203228DF81820ADF81A303D
:1072F4008DF81C30064B0893064B099303A814F031
:1073040087F810B90BB05DF804FB14F00BFAF9E739
:10731400C5710200B57102000620704700B587B040
:1073240044F20103984262D01BD8012836D041F2BE
:107334000103984276D1474B1B6813F4804F36D033
:10734400454B1B68002B32DD444BD3F804350292C5
:107354000191434A009263224249012005F0C4FD91
:1073640025E044F2020398425CD13A4B1B6813F4C3
:10737400804F1CD0384B1B68002B18DD374BD3F8DB
:10738400043510880390526802920191364A0092A3
:1073940069223449012005F0A7FD08E02D4B1B6844
:1073A40013F4804F03D02C4B1B68002B12DC4FF0DE
:1073B400A0434FF4F032C3F81825C3F80C25EFF3BB
:1073C400108372B64DF6AD6C284B1B78002B3ED063
:1073D40030BFF9E7214BD3F8043502920191244AD6
:1073E400009260221F49012005F07EFDDFE7194B62
:1073F4001B6813F4804FDAD0174B1B68002BD6DDC3
:10740400164BD3F804351068049050680390029129
:1074140092680192174A009273221249012005F0E2
:1074240063FDC4E70B4B1B6813F4804FBFD00A4BBA
:107434001B68002BBBDD094BD3F8043501910E4AC0
:1074440000927B220749012005F04EFDAFE707B00B
:107454005DF804FB1C2E0020182E002000100140B3
:10746400B421040086210400D8210400C82D002082
:1074740098210400F82104001C22040000B583B004
:1074840001460023ADF80030044B01936A4644F2F0
:107494000200FFF743FF03B05DF804FB1822040069
:1074A40010B40346044C006859689A68DB680FC43A
:1074B4005DF8044B704700BFD83300200B4B0C4AD7
:1074C40092E8030083E8030003F10802094903C9B1
:1074D40082E80300DA79042161F30712DA711A7A77
:1074E400022161F387121A72704700BFD83300205B
:1074F40060000010A400001000487047D83300203A
:1075040000231F2B09D8074901EBC3000022428046
:10751400426001F833200133F3E7034B00221A6081
:10752400704700BFE8330020E834002030B405463B
:107534000F4B1B6800240AE01F230E4A12F8330085
:10754400A0B102EBC3025288AA4207D001341F2C17
:107554000BD85A1E002BEFD01346EEE7054A02EB78
:10756400C30252688A42F1D100E0002030BC704767
:10757400E8340020E833002030B40A4A13680A4C87
:1075840004EBC30568806960012104F833100B44DF
:107594001360202B01D030BC7047134600221A60C0
:1075A400F9E700BFE8340020E8330020C0F30C03FF
:1075B4008B4204D2C91A0844A0F500507047C91A76
:1075C40008447047C37D002B42D0C3780A7802F088
:1075D400800203F07F0313430B7002780B7803F0EF
:1075E4007F0343EAC2130B700378002B41D030B4FD
:1075F4008378082B14BF002201224B7803F07F0309
:1076040043EAC2134B70C58803F08003C5F38614A4
:1076140023434B708A7802F0030242EA8502D2B215
:107624008A70057A02F0FC02C5F3C10422438A7011
:10763400CB7803F01F0343EA4513DBB2CB70427AE5
:1076440003F0E00302F01F021343CB7030BC704719
:10765400C3780A7802F0BF029B0103F0400313438E
:107664000B70027903F0C00302F03F0213430B7066
:10767400B3E770470023032B31D810B402E0013381
:10768400032B28D8C3EBC302164C04EB021292F866
:107694004820012AF3D1C3EBC30204EB0212948AFB
:1076A400C2899442EBD1C3EBC3020E4C04EB021229
:1076B400D2888A42E3D1C3EBC30204EB0212B2F8CC
:1076C400582012B1848AA242D9D1C3EBC30305481E
:1076D40000EB031000E000205DF8044B704700202D
:1076E400704700BF9C350020002300E00133032BCA
:1076F40016D8C3EBC3020B4901EB021292F84820DF
:10770400022AF3D1C3EBC30201EB0212918A828AEB
:107714009142EBD1C3EBC303024800EB0310704763
:10772400002070479C35002008B9042070470820C9
:10773400704730B403460C460978C1700021416299
:10774400A1680B2903D8217BF9B1012100E00121B3
:1077540019700020987029B1A1680731C90801394E
:10776400597218720121D97503F10C0561692069F8
:1077740085E80300E1899982A1691962217F9975DD
:10778400216AD9629A6230BC70470021E0E70000A8
:107794000021164B1B688B4226D90023144A02EBA6
:1077A400C10252689A421DD910B4114A52F83120CC
:1077B40002EBC30412F8332082420DD001330C4A89
:1077C40002EBC10252689A42EFD80131074B1B68A1
:1077D4008B4205D90023F2E760685DF8044B7047DB
:1077E4000020FAE70131D4E700207047EC34002090
:1077F400F034002070B58CB006460D4614462C2299
:10780400002101A81AF086F90F238DF80430ADF891
:1078140008604FF0000365F300038DF80A308DF81B
:107824000B4001A801F010FA0CB070BD30B58DB05A
:1078340005460C462C22002101A81AF06BF91023EE
:107844008DF8043002958DF80C4001A801F0FCF984
:107854000DB030BD00B58DB010B913F1020F06D1D3
:10786400074B186804F098F90DB05DF804FB012289
:107874008DF80420029301A801F0E6F9F0E700BFB7
:10788400F8340020D0B50446037853B1E3691F0AE5
:107894001E06E188A069FFF789FE301847F1000150
:1078A400D0BD7846FFF7EAFDF0E70000F8B50546DD
:1078B400002400E00134032C22D8C4EBC403114A91
:1078C40002EB031393F84830022BF3D1C4EBC40347
:1078D40002EB03139A8AAB8A9A42EBD12846FFF74C
:1078E400D1FF06460F46C4EBC403064800EB031061
:1078F400FFF7C8FF8F4208BF8642DBD2012000E0B9
:107904000020F8BD9C35002070B5064603783BB1D5
:107914003046FFF7B7FF04460D46B18A002004E065
:107924007846FFF7ABFDF3E70130072810D80301D1
:10793400084AD35A8B42F7D102EB0013D3E902234E
:10794400AB4208BFA242EFD1024B03EB001000E0B0
:10795400002070BD0035002038B504460D4603787C
:107964000BB1002304E07846FFF788FDF9E7013303
:10797400072B09D8A08A1A010F498A5A9042F6D1D6
:107984001B010A460021D1520C4A1368591C11608C
:1079940003F00703A08A1A010749885255B1627897
:1079A400054D05EB0315AA702046FFF76BFFC5E9EB
:1079B400020138BD0022F3E70035002080350020A5
:1079C400F8B5069C002960D01E460F46156851681C
:1079D400D2F808C0D368E5602161C4F814C0A3617B
:1079E40015695169E5612162002363700278D20947
:1079F40022705AB30423BB4249D8E17D41B30378D2
:107A040003F07F03E3700023A3709AB143789B01D2
:107A140003F4FE53827843EA9203E3808378DB0025
:107A240003F01803C27843EA52132372C37803F0B5
:107A34001F036372002363623378032B21D83278E7
:107A4400144B53F82230E3620020F8BD0123D2E73F
:107A54000178C1F38011E170017801F03F012171D7
:107A640042B190F90130002B02DB0423A370CCE770
:107A74000823FBE70421A1700B44BB42C5D90920AC
:107A8400E3E77846FFF7FAFCD9E70920DDE70920A8
:107A9400DBE700BF8023040070B50C461D46037865
:107AA4009BB104263244A26000F10C032360836A74
:107AB4006360C36AE36000232374204604F0E0FBA0
:107AC40010B963691E442E6070BD0126EAE72DE9F2
:107AD400F0418EB00D4616461C46804600282DD037
:107AE400002D2FD0002C31D0636A0233059304F1AA
:107AF4000C00E378002B2DD00121A27801AF3B4686
:107B0400082A14BF0022012204F08BF90697CDF84D
:107B14001C80B2B2ADF820200B9515440C95A378C7
:107B24008DF83430237B022B16D00023ADF8283097
:107B340005A804F06EF90EB0BDE8F0817846FFF7B1
:107B44009DFCCDE77846FFF799FCCBE77846FFF735
:107B540095FCC9E70221D0E723692BB12369099376
:107B64001023ADF82830E3E77846FFF787FCF5E704
:107B74002DE9F04188B004460D46C37D002B3CD06E
:107B8400082605FB06F8637AAB4238D0257201ABB0
:107B9400324602A92046FFF77FFF074648BB4DB98E
:107BA40094F8533033B9A369C3F30C03E38001237E
:107BB40084F85330E37D7BB994F8523063B91DBB2C
:107BC400E06EB4F84A10A27823468A1A0146FFF7F9
:107BD4007EFF012384F8523007992046FFF7F2FC18
:107BE400E16E32464144019819F06BFF02A804F09B
:107BF4006DFB384608B0BDE8F0810C26C1E7B4F847
:107C04004A60A6EB0806C1E77846FFF737FCD7E7DA
:107C140070B505460E4609B100230B6095F8504037
:107C2400002104E0631C85F850300134E4B26B7A1F
:107C3400A34210D3EA6C0123A3401A42F5D1214692
:107C44002846FFF795FF014628B9002EEAD033688D
:107C540001333360E6E7084670BDF0B589B00446E9
:107C64000E46154683789A18C37D63B10B239A4256
:107C740021D801AB02A92046FFF70EFF074620B129
:107C8400384609B0F0BD0F23F1E707992046FFF706
:107C940099FCE37D43B12A463146019819F011FF5E
:107CA40002A804F013FBEBE723462A460199304669
:107CB400FFF70DFFF4E70927E2E7000010B50446DB
:107CC40090F84830012B0CD103F054F9237B012B9D
:107CD4000BD0094BD968014404F1300003F020F9BA
:107CE40010BD7846FFF7CAFBEEE7A17D024BDA68C8
:107CF4001B6903FB0121EEE78435002030B583B016
:107D0400002403E02846FFF7D9FF0134032C18D8D8
:107D1400C4EBC4030C4A02EB031393F84830012B61
:107D2400F3D100230193C4EBC40502EB051501A9AB
:107D34002846FFF76DFF0428E4D0019B002BE4D014
:107D4400E0E703B030BD00BF9C35002038B50446E1
:107D540090F84830022B09D1064B1D6803F00AF94C
:107D6400411904F1300003F0DBF838BD7846FFF721
:107D740085FBF1E78435002038B5044690F8483097
:107D8400022B10D10A4B5D7D5A689B6803FB0525C5
:107D940003F0F0F8411904F1500003F0C1F8012395
:107DA40084F8683038BD7846FFF768FBEAE700BF1F
:107DB4008435002010B50446808A02F03DFC012879
:107DC4001CD1237BE3B194F91620002A1ADBE27D4F
:107DD4004AB1022B18D094F90330002B16DBA37898
:107DE400B3B900200BE0E2780AB9012B12D1237851
:107DF40093B9A378042B11D1002000E0102010BD0A
:107E04001020FCE70720FAE71020F8E70720F6E740
:107E14000720F4E70720F2E70020F0E70720EEE769
:107E240038B50446C2698169808A06F037FA054686
:107E340008B9284638BDE169002201F00101A08A91
:107E4400FFF7D8FCF5E700002DE9F04780460E4621
:107E540017464B1EDBB2012B0FD8B7F5C07F10D8E5
:107E64000024032C1AD8C4EBC403314A02EB0313D5
:107E740093F848304BB10134F3E77846FFF7FEFA44
:107E8400EBE77846FFF7FAFAEAE7C4EBC40502EB3E
:107E94000515384608F00FFBE86600E000255DB3E1
:107EA400EB6E002B42D043462C4608F1300ED3F83B
:107EB40000C058689968DA68C4F800C06060A160BE
:107EC400E260103310347345F1D10023EB64A5F85C
:107ED4004A70012E13D06FF00103AB62002385F8C2
:107EE4006830144BAB652D66134BAB632D640120D6
:107EF40002F07CF885F848602846BDE8F0870F4B0F
:107F04001B7D85F85130002385F8523085F85330B5
:107F140085F85030D8F828206A65A5F858306FF0F5
:107F24000103AB62064BAB632D64E0E71D46E3E758
:107F34009C3500207B880200698202008435002081
:107F4400B582020000B585B000228DF80F20A0B1E3
:107F54000B46024602320A600DF10F01184603F087
:107F64005CFF9DF80F3043B10C4B1B6813F0040FFA
:107F740003D00B4B1B68032B04DC9DF80F0005B0EA
:107F84005DF804FB074BD3F80435074A009240F22E
:107F940037420649042004F0A7FFEEE71C2E002018
:107FA400182E0020001001407422040068220400EE
:107FB4002DE9F0438FB004460E4615461F46D0F80F
:107FC4001890037823B1C1884846FFF7EFFAA061FF
:107FD40004F10C00E378002B37D00121A2780DF1D5
:107FE40028084346082A14BF0022012203F019FF7F
:107FF400C4F81890CDF808800396A378EA1A92B2D0
:10800400ADF810203244089207978DF824300023ED
:10801400ADF81830E37863B3237B022B17D02546E1
:10802400002345F8243F2A462179206A0FF0B6FA46
:10803400606A90B101A9FFF785FF00283DD12A4667
:108044002179206A0FF0AAFAF2E70221C6E7102389
:10805400ADF8183023690593E1E7237B022B30D177
:1080640004F10C01E0890FF04BFB0028D4D105206A
:1080740024E0237B012B01D005201FE0E389ADF828
:108084000030A38AADF802300025012D13D8214613
:10809400002341F8243F0EAB03EB450333F8380CBF
:1080A4000FF099FA01A9606AFFF74CFF08B901358E
:1080B400EBE7002002E0052000E000200FB0BDE85F
:1080C400F0830520FAE7000070B5F0B00E461446C0
:1080D4001D4610AB0A4601462046FFF769FF50B122
:1080E400214B1B6813F0040F03D0204B1B68052B96
:1080F4002DDC70B070BD2046FFF792FE0028F8D149
:1081040003AB01228DF80C20A28AADF80E200022C8
:1081140004928DF8142010AA0692A178711AADF871
:108124001C1008AA93E8030082E803000AAB216943
:10813400E06883E80300A37D8DF83830236A0C934C
:10814400636A0D930F9505A800F07EFDD1E7084BF7
:10815400D3F80435074A009240F20E72064906200D
:1081640004F0C2FEC5E700BF1C2E0020182E00201C
:1081740000100140882204006822040010B504465F
:10818400C06E08F09CF904F1300002F0B1FE94F8DE
:108194004830022B0AD070220021204619F0BAFC84
:1081A400002084F8480001F021FF10BD04F15000C4
:1081B40002F09EFEEFE710B58CB0044690F848300C
:1081C400012B0CD101238DF80430636D029301A8B7
:1081D40000F03AFD2046FFF7D1FF0CB010BD784601
:1081E400FFF74CF9EEE7000030B585B00D460446C4
:1081F400A8B194F84830022B15D02946606DFFF7DA
:1082040015FB2046FFF7BAFF114B1B6813F0040F50
:1082140003D0104B1B68032B0ADC05B030BD784635
:10822400FFF72CF9E5E700212046FFF795FBE4E78B
:10823400094BD3F8043594F8482002950192074A73
:10824400009240F22D220649042004F04DFEE4E79A
:108254001C2E0020182E002000100140B42204001F
:108264006822040008B508460021FFF7BDFF08BDD9
:1082740008B5037B012B02D0FFF79DFF08BD012148
:10828400FFF7B2FFFAE7000008B590F8513053B198
:10829400013B80F85130002380F85030034B1868BC
:1082A40003F07AFC08BDFFF7E3FFFBE7F834002096
:1082B40010B50C4691F84830012B03D12046FFF746
:1082C400E3FF10BD7846FFF7D9F8F7E7062976D122
:1082D400F0B585B015460678B20102F4FE52417835
:1082E4008478C3781B0443EA0463047943EA0423CF
:1082F40044791C4376B242EA91012846FFF7BAF961
:108304000746E0B1002E2FDBC289A98A8A422BD00E
:108314002B4B1B6813F0040F3ED02A4B1B68012B18
:108324003ADD294BD3F8043502910192274A009291
:108334004FF4D1622649022004F0D6FD2CE0204BF4
:108344001B6813F0040F27D01E4B1B68012B23DD81
:108354001D4BD3F804351F4A009240F284621C4935
:10836400022004F0C1FD17E0002E17DBFD6C25434D
:10837400FD64BCB13B78D3B17B7A5A1C0123934092
:10838400013B9D4217D0002187F850103846FFF773
:108394003FFC3846FFF792FC05B0F0BDAB8AA7F866
:1083A4005830E3E703213846FFF71EFFF4E7784629
:1083B400FFF764F8E0E73846FFF7FDFEECE77047A7
:1083C4001C2E0020182E0020001001400823040059
:1083D40068220400D82204002DE9F0418AB007463F
:1083E4000E4614461D461046FFF71AFD50B994F880
:1083F4000380B8F1000F08D12B4622463146384697
:10840400FFF764FF0AB0BDE8F0814046FFF7C0F90A
:1084140002460028F6D08DF80480236A0793A38AC5
:10842400ADF8123005AB2169E06883E80300A37D51
:108434008DF820300297039623788DF81030E36A84
:108444000993294601A89047DCE710B5547814F045
:10845400010F03D0D47D14B1FFF7BEFF10BDFFF7A9
:1084640033FEFBE708B501390130FFF7EEFF08BD25
:10847400F0B5C7B00F46164682783244C37D2BB19F
:108484004FF4807393427CD3002303E04FF4C07312
:10849400F8E70133032B1AD8C3EBC3043B4D05EBB8
:1084A400041494F848100129F3D1C3EBC30105EB7C
:1084B40001118C8A818A8C42EBD1C3EBC30105EB99
:1084C4000111CC89C1898C42E3D1082552E00121F4
:1084D400FFF7BAFC0446002855D032463946C06E30
:1084E40019F0EFFA0023459345A92046FFF790FBC6
:1084F400054608B1042840D1459B0BBB244B1B689F
:1085040013F0040F35D0234B1B68032B31DDB4F873
:108514004A70802F28BF80270023BB4214D2E26E0A
:10852400D25C1D490D68100959002E5C04A800F89E
:10853400136002F00F020131AA5C42540133ECE7EC
:108544002046FFF7BBFBD9E704AA002302F8173043
:1085540003F1804303F58833D3F8043502920F4ABC
:1085640001920F4A009240F26D520E49042004F029
:10857400BBFC0025284647B0F0BD2046FFF7FEFDB2
:10858400F8E70925F6E70425F4E700BF9C35002049
:108594001C2E0020182E0020202E00204C23040026
:1085A400782004006822040070B504460D4616467F
:1085B400FFF700FC30B923782BB132462946204618
:1085C400FFF756FF70BD324629462046FFF745FBAC
:1085D400F8E7000038B504460D46CB695B780371B3
:1085E400CB691B7883F00103C370CB6943628B8A28
:1085F4000B2B07D8CB7A002B35D10B7B012B02D068
:10860400002300E001232370002B31D0287B0228B3
:108614002BD0FFF789F8A070AB8A03440B33174AB9
:1086240082FB03235B10013B63720023237200234C
:10863400E37504F10C0395E8030083E80300AB69D8
:1086440023622B89A382AB7AA3752B6AA362DF23EF
:10865400E36228460FF082F820B12B78012B0AD070
:10866400FF23E36238BD0123CDE7054B987DD0E7B6
:108674000423A370DBE72023F3E700BFABAAAA2AF5
:108684008435002010B54FF4E0720021134819F02E
:1086940041FA05F0B5FE0024114B1C6080222146EE
:1086A400104819F037FA104B104A1A60104A5A60F1
:1086B4004CF250329A600F49D9601A6104221A753B
:1086C4009C7508225A750C4803F046FA0B4B186047
:1086D4000B4B1C600B4805F097FF10BD9C35002028
:1086E40080350020003500208435002080969800D5
:1086F400F049020020A107006D880200F834002030
:10870400EC3400205978020008B505F0BFFD08BD1F
:1087140098B110B58CB00446036983B1C36983B1C1
:10872400836983B101466846FFF754FFA28A216931
:108734006846FFF739FF0CB010BD0E2070470E20BD
:10874400F9E70E20F7E70E20F5E790B110B58CB0ED
:108754000A460446436873B1836973B101466846A7
:10876400FEF7E7FFA26861686846FFF71DFF0CB0DB
:1087740010BD0E2070470E20F9E70E20F7E7000029
:10878400037B012B01D00020704710B58CB000236F
:108794000193CDF80730C288C2F3861492008DF895
:1087A40001200A0E8DF802200A0C8DF803200A0A13
:1087B4008DF804208DF805104278022A14BF002297
:1087C400012244EAC2128DF80020062205920122F9
:1087D4008DF81C20828AADF81E2008938DF80C3089
:1087E400CDF810D0026A09928DF81830C389ADF81B
:1087F4001A30C36A0B93837D43B98DF828306FF028
:10880400010103A8FFF7A1FF0CB010BD024B5B7D73
:108814008DF82830F3E700BF8435002090F8483005
:10882400022B00D0704710B5044690F86830022B34
:1088340000D010BDC16CFFF7A3FF0028F9D10023BD
:1088440084F86830F5E7000010B5002407E0C4EBB5
:10885400C402130103481844FFF7E0FF0134032C5A
:10886400F5D910BD9C35002008B5FFF747FAFFF78E
:10887400EBFF012008BD10B50C4691F84830022BDF
:1088840006D1022384F868302046FFF7C7FF10BDE5
:108894007846FEF7F3FDF4E72DE9F0438FB0044684
:1088A400FFF704F8002840F08E802046FFF72CF8EC
:1088B400074600283CD12046FEF716FF054658B16E
:1088C4002046FEF7DFFF804689462846FEF7DAFF9A
:1088D400494508BF404553D3002D75D1667A731CB2
:1088E400E27D002A52D0082606FB03F6002A4FD068
:1088F4004FF48073B3424ED3E188A069FEF756FE6D
:108904000146E269A08A05F025FD00285CD13246C3
:1089140002212046FFF798FA0546002854D1002189
:108924002046FFF72DFF02210020FEF77FFF4BE0DA
:1089340002AD26460FCE0FC50FCE0FC596E80F0029
:1089440085E80F00BB788DF809307BB19DF80830BD
:1089540073B19DF811104B1C01219940013902A8F3
:10896400FFF70EFFBB7813F0010F05D100252BE0B4
:108974007846FEF783FDECE72046FFF751FAF5E76A
:1089840005212846FFF730FC3D46A7E70C26ABE758
:108994004FF4C073AEE70E4B1B6813F0040F03D003
:1089A4000C4B1B68002B01DC3D460DE00A4BD3F851
:1089B40004350196094A009240F292320849012096
:1089C40004F092FAF0E7002528460FB0BDE8F083E2
:1089D4001C2E0020182E0020001001405C230400EF
:1089E400682204002DE9F04182B007460E46144681
:1089F40098461046FFF750FF002846D00546424BE4
:108A04001B6813F0040F03D0404B1B68032B3FDC9F
:108A14002846FFF79BF92B7B012B47D0EB6C217A7F
:108A240001228A40134230D11A43EA64043E237A75
:108A3400E27D002A42D04FF0080C0CFB03FC697A5B
:108A44008B423ED0002A41D00823B34240D1AA69C8
:108A5400A3699A4209D205F10C0E0C340FCCAEE88E
:108A64000F0094E803008EE80300E86E3246391DD7
:108A7400604419F026F8EC6C2B7873B36B7A5A1CAB
:108A840001239340013B9C422BD002B0BDE8F0810E
:108A94001F4BD3F80435227A01921E4A00924FF4F8
:108AA40071721D49042004F01FFAB1E795F868308B
:108AB400002BB3D12846FFF75FF9AFE74FF00C0C5A
:108AC400BBE70CEB0603A5F84A30C0E70C23BCE770
:108AD40004212846FFF788FBD7E77846FEF7CEFC4B
:108AE400CCE7E96C2846FFF74BFE43462A46B5F827
:108AF4004A10E86EFFF7A9FC01212846FEF72CFF77
:108B04002846FFF73BFBC0E71C2E0020182E002050
:108B14000010014070230400682204002DE9F04194
:108B240090B0002842D00F4614461E468046002AC4
:108B34003ED004AB00933346FEF742FF054618B11E
:108B4400284610B0BDE8F08104A8FFF733F90546C4
:108B54000028F5D12269E168208905F0FBFB002893
:108B6400EED100230293039302A960880EF0C8FD9E
:108B740038B19DF8113043F001038DF81130039B97
:108B840008939DF81130002BDAD09DF8103033B1E2
:108B9400334604AA39464046FFF724FFD0E733465C
:108BA40004AA39464046FFF75DFCC9E70E25C7E72E
:108BB4000E25C5E7F8B508B30E460546164B1F68E3
:108BC400F7B93C46B4420FD205EBC4035B68D3B19A
:108BD40015F8340015F93430002B16DBB8B1FEF764
:108BE400D7FDB0B90134EDE70C4B43F8375003EB34
:108BF400C7035E607B1C084A136002E00E2700E096
:108C040004273846F8BD0E27FBE70B27F9E70F27A3
:108C1400F7E70F27F5E700BFEC340020F03400201D
:108C2400084B196861B110B504E0064804F0C6F8B1
:108C3400214624B10C680B79002BF9D0F5E710BD5F
:108C4400704700BF6037002038B5054630B1104B7F
:108C54001C68ACB10F4B01221A7004E07846FEF791
:108C64000DFCF4E724683CB12379002BFAD154F8C5
:108C7400043C28469847F5E7064B1B78022B00D0A6
:108C840038BDFFF7CDFF034B00221A70F8E700BF91
:108C9400603700205C37002010B5044630B1002353
:108CA4002372211D034804F05EF810BD7846FEF7D8
:108CB400E5FBF4E76037002010B5044658B10A4BD1
:108CC4001B78013BDBB2012B09D8074B02221A7037
:108CD4000123237210BD7846FEF7D0FBEFE7211D78
:108CE400024804F06BF8F5E75C3700206037002099
:108CF4000A8883689B5A07339BB223F00303134407
:108D04009BB20288043A934200D900230B80704737
:108D140010B582B004468368C91AADF806100DF187
:108D24000601FFF7E5FFBDF80630A068184402B05D
:108D340010BD0088043880B2704743888268D01818
:108D4400D15201238370704782680023937043805B
:108D540083807047073189B221F0030189B24288C8
:108D640083889A4204D29B1A99421EDC00207047E1
:108D740010B59A420FD90488A41AA14217D98B427C
:108D840017D3032C03D98368134404229A70002355
:108D94004380184604E0826813449B780BB1042096
:108DA40010BDFFF7D1FF0020FAE704207047002030
:108DB400F6E70420F4E738B504460D468368828854
:108DC40013448B4202D07846FEF758FB0023AB7065
:108DD400211D2046FFF78CFFA288A36813449B78CB
:108DE400042B00D038BD0023A380FBE710B50C464C
:108DF4008368428813448B4202D07846FEF73EFBD8
:108E04000023A37010BD70B5054614460E46002914
:108E140044D0002D46D0B6F1005F08D94FF08053FE
:108E2400D3F80C3103F50023B6EB832F0ED3B6F53C
:108E3400000F08D94FF08053D3F80C3103F50053D9
:108E4400B6EB832F02D37846FEF718FB631E334438
:108E5400B3F1005F08D94FF08052D2F80C2102F52B
:108E64000022B3EB822F0ED3B3F5000F08D94FF0D5
:108E74008052D2F80C2102F50052B3EB822F02D3B8
:108E84007846FEF7FBFA042C10D92C8000236B8063
:108E9400AB80AE60043C3480B37070BD7846FEF79E
:108EA400EDFAB6E77846FEF7E9FAB4E77846FEF756
:108EB400E5FAEAE738B50446A0B16288A36813442A
:108EC4009B78012B12D0EFF3108572B6A388A168AA
:108ED40019448B78032B0DD02046FFF735FF05B9D5
:108EE40062B638BD7846FEF7C9FAE6E77846FEF77B
:108EF400C5FAE8E72046FFF70BFFA368C31A6380AF
:108F040000238370EBE72DE9F0410E461446054635
:108F1400D0B1EEB16A88AB6813449B78012B1BD0A7
:108F240024B32846FFF705FFA04221D3EFF31088AE
:108F340072B621462846FFF70DFF074680B1B8F107
:108F4400000F16D162B614E07846FEF797FAE0E710
:108F54007846FEF793FADDE77846FEF78FFADFE707
:108F640021462846FFF7E9FE3060E8E7092700E0DC
:108F740009273846BDE8F081F8B50C461546064683
:108F8400E0B1FCB1A378012B20D12388AB4221D3DB
:108F940025B3EFF3108772B625800223A370F1186E
:108FA4003046FFF7A5FE7388B288934203D0B268B7
:108FB400134400229A7007B962B6F8BD7846FEF7EA
:108FC4005DFADEE77846FEF759FADBE77846FEF706
:108FD40055FADAE77846FEF751FAD9E77846FEF70C
:108FE4004DFAD6E770B50C46054690B1ACB1EFF337
:108FF400108672B6AA88AB6813449A78042A10D0F3
:109004009A78022A15D0032A18D0052006B962B628
:1090140070BD7846FEF732FAE8E77846FEF72EFA96
:10902400E5E7291D2846FFF763FEAA88AB681344C9
:10903400E6E703229A7023600020E7E77846FEF70C
:109044001DFA0020E2E738B5044680B1EFF310853D
:1090540072B6A088A16801448B78042B0BD0887861
:10906400022814BF0020012005B962B638BD784635
:10907400FEF704FAEAE72046FFF74AFE0146EEE768
:1090840038B5054678B1EFF3108472B6A888A9689C
:1090940001448878C31EDBB2012B08D82846FFF7A9
:1090A40037FE0146F5E77846FEF7E8F9EBE70228D4
:1090B40014BF0020012004B962B638BD70B50C4657
:1090C400064678B194B1EFF3108572B6A378012BFC
:1090D40010D0032B13D121463046FFF76CFE05B99F
:1090E40062B670BD7846FEF7C9F9EBE77846FEF73D
:1090F400C5F9E8E721463046FFF778FEEFE7784602
:10910400FEF7BCF9EBE710B5EFF3108472B6838871
:10911400816819448B78042B06D08878B0FA80F0E3
:10912400400904B962B610BDFFF7F2FD0146F4E749
:1091340008B5064B986800221A605A609A60DA6093
:109144001A615A619A6104F0B5FE08BD64370020C3
:1091540000B585B00A4BDB6802228DF8002001932C
:109164004FF480530293074A6946012001F07AF9CB
:1091740018B9012005B05DF804FB0020FAE700BF30
:10918400643700208037002000B585B00A4B1B6887
:1091940002228DF8002001934FF480530293074A72
:1091A4006946012001F05EF918B9012005B05DF8A7
:1091B40004FB0020FAE700BF84370020803700203A
:1091C400164BDA68137951795B1A03F57F2303F69A
:1091D400FF7302EB03339A4205D002F580520F4B22
:1091E400DA600320704700B585B00D4B1B68012081
:1091F4008DF8000001930B4B0393042302930A4A56
:10920400694601F02FF918B1002005B05DF804FBA0
:10921400024B01221A760220F7E700BF64370020D0
:1092240084370020883700208037002000B585B0BF
:109234000C4BDA680C4B1B68043301208DF80000DA
:109244000192039340F6FC730293084A694601F0C5
:1092540009F928B90120034B187605B05DF804FB21
:109264000020FAE76437002084370020803700208C
:1092740000B585B00A4B1B6801208DF800000193EE
:10928400084B039304230293074A694601F0EAF862
:1092940018B9012005B05DF804FB0020FAE700BF0F
:1092A40084370020703700208037002010B584B048
:1092B400104BDA681478104B1B68043301208DF8C6
:1092C40000000193039202940C4A694601F0CAF823
:1092D40070B9094B1B6804F0FC041C440434054BAE
:1092E4005C61D9680A780A441A61012004B010BD8F
:1092F4000020FBE7643700208437002080370020FB
:1093040008B50023092B09D8064A52F823208242C3
:1093140001D00133F6E7044A536002E07846FEF7D1
:10932400ADF808BD902304006437002010B5214B2C
:10933400DB6853B11F4B1B7E5BB91E4B5B68092B6B
:1093440026D97846FEF79AF822E07846FEF796F892
:10935400F0E77846FEF792F8EFE7164A53680133D0
:109364005360092B21D97846FEF788F81DE0114B8C
:1093740000225A6019E00F4B1B7E1BB10D4B0222D9
:109384001A7012E0FFF7D4FE0FE00A4B1B7E83B97C
:10939400084B5A68084B53F8223098470446022871
:1093A400E9D00328E3D00128D7D0012CEDD0032C39
:1093B400EBD010BD6437002090230400104B1B68D1
:1093C4001B685A1E12F1030F18D8C3F30B020AB11B
:1093D4000020704710B50B4AD360002313765376F0
:1093E4000124147093600848FFF78AFF0749204658
:1093F40001F026F8FFF79AFF204610BD00207047C1
:10940400843700206437002055910200159402002F
:1094140008B50B78032B06D00B4B1B78012B06D019
:10942400022B0BD008BD084B00221A76F4E7064B3A
:109434001B7E002BF6D1FFF779FFF3E70B78032BA4
:10944400F0D1FFF775FEEDE76437002000B585B075
:10945400174BDB6818784FF6FF7203F580511844F8
:1094640005F088F8E0B10246114BD9680B780B443B
:10947400984217D00E4B5B7E83B10E4B01208DF8C2
:10948400000001920393042302930B4A694600F0FF
:10949400E9FF48B90120064B187606E0074BEDE7D3
:1094A400012002E0012000E0002005B05DF804FB8B
:1094B40064370020B425040080370020B025040060
:1094C40008B5104BDB681878002203F58051184466
:1094D40005F050F808B1012008BD0A4BDA68137989
:1094E40051795B1A03F57F2303F6FF7302EB033311
:1094F4009A4205D002F58052024BDA600320EBE772
:109504000220E9E764370020F0B585B0514BDE68EE
:1095140072793379591E8A4214D006F580510D7838
:109524000D444D490968081D0F7907449B1A06EB41
:1095340003366B88013B9BB247F6FE62934260D9C7
:109544002C461AE00120434B58767EE07846FDF71E
:1095540095FF15E024F47F6424F00F0404F580548F
:1095640023781C44A64247D9A54247D26388013BCD
:109574009BB247F6FE62934211D92388002BE5D0B3
:10958400238804EB830323F47F6222F00F029342C7
:10959400E0D06288B2F5FE4FDCD01C46E2E72546F7
:1095A4002FE07846FDF76AFF15E024F47F6424F089
:1095B4000F0404F5805423781C44A64220D9A54204
:1095C4003BD26388013B9BB247F6FE62934211D9BA
:1095D4002388002BE5D0238804EB830323F47F62E4
:1095E40022F00F029342E0D06288B2F5FE4FDCD045
:1095F4001C46E2E7254604E0002502E0002500E0E1
:109604000025E5B1144B19686A8801F58051384684
:1096140004F0B0FF074690B101200E4B18768DF888
:10962400000001950D4B0393042302930C4A6946F1
:1096340000F018FF58B92C46CAE70025E1E7B5FA4F
:1096440085F56D09034B5D76012005B0F0BD002062
:10965400FBE700BF6437002084370020AC250400FA
:10966400803700202DE9F04186B0644B1B692BB193
:10967400624B5B6933B14FF0000846E07846FDF772
:10968400FDFEF5E77846FDF7F9FEF4E77846FDF7C9
:10969400F5FE15E025F47F6525F00F0505F58055E9
:1096A4002B781D44AF421CD9AC421ED26B88013BBF
:1096B4009BB247F6FE62934211D92B88002BE5D06A
:1096C4002B8805EB830323F47F6222F00F0293427D
:1096D400E0D06A88B2F5FE4FDCD01D46E2E72C46A6
:1096E40000E000241CB100943AE00024FAE70023CF
:1096F4000093019B002B5CD14FF00108002C77D024
:10970400628847F6FF739A4272D0B8F1000F73D1A2
:109714003A4B5A6922F47F6626F00F06B61A06F50C
:1097240080561C69DF683B797A799B1A07EB03370B
:10973400002301936388013B9BB247F6FE62934288
:10974400D1D92546B9E77846FDF798FE23E024F4FD
:109754007F6424F00F0404F58054237823441C46CA
:10976400A742C6D92388019A02EB83029642C0D944
:10977400009B634023F47F6323F00F03002BB8D1D5
:109784006388013B9BB247F6FE618B42B1D80192DC
:109794002388002BD7D0238804EB830323F47F6230
:1097A40022F00F029342D2D06288B2F5FE4FD6D196
:1097B400CDE7124A526901208DF808000392009AFD
:1097C400059204930E4A02A900F04CFE70B90B49AD
:1097D400019B23F003024B6913444B6114B1074B03
:1097E4001C618BE77846FDF749FEF8E7002000E0AE
:1097F400012006B0BDE8F0810120FAE764370020BB
:109804008037002008B54FF010235B69B3F1FF3FA8
:1098140009D04FF010235B692BB14FF010235B6923
:10982400A3F5805305E04FF080525169136903FB9F
:1098340001F3A3F58053024A1360FFF7BFFD08BD8F
:109844008437002010B50446B0B1104B1B78BBB16F
:109854000E4BD968E3685879A3EB0032914211D3D7
:109864001A79121A02F57F2202F6FF7203EB023311
:10987400994209D8012004E07846FDF7FFFDE4E7AA
:10988400002010BD0020FCE70020FAE76437002028
:10989400024B1878003818BF012070476437002045
:1098A40010B504460E4B1B7893B92378032B13D1C0
:1098B4000B4B9C60E268DA6000225A601A76012041
:1098C40018705A76074900F0BBFDFFF72FFD10BD55
:1098D4007846FDF7D3FDE8E77846FDF7CFFDE7E7E7
:1098E4006437002015940200014B1868704700BFCC
:1098F4008437002010B5044680B163681BB1236827
:109904000BB1A36813B97846FDF7B8FDA3685A1ED6
:10991400134207D10023E360236110BD7846FDF7AD
:10992400ADFDEAE77846FDF7A9FDF3E7F8B500B326
:109934000F4604468368F3B1EFF3108572B60369EA
:10994400C268934211D0016842688668013E334080
:1099540003FB021117B1384618F0B3F82369013339
:10996400236155B962B62846F8BD05B962B6052526
:10997400F9E70E25F7E70925F5E70025F3E70000E9
:109984000246C0F30B0040BB49B310B401F6FF71AB
:109994000C0B144B0221C3F80415124BD3F80034FA
:1099A400002BFAD001460AE00E4BC3F808250D4BF4
:1099B400D3F80034002BFAD002F580520131A142D1
:1099C400F2D3084B0022C3F80425064BD3F8003425
:1099D400002BFAD05DF8044B704710207047092023
:1099E400704700BF00E0014010F0030F2FD110B406
:1099F400044611F0030F2CD16AB312F0030F2CD1DB
:109A04009008174B0122C3F80425154BD3F80034F2
:109A1400002BFAD002E0043404311046421E50B147
:109A24000B68B3F1FF3FF6D023600D4BD3F800343D
:109A3400002BFAD0EFE70A4B0022C3F80425084BA9
:109A4400D3F80034002BFAD05DF8044B7047102093
:109A540070471020F8E70920F6E70920F4E700BF73
:109A640000E001404388012B05D0022B01D10430D2
:109A740008600120704704304860FAE708B50822FE
:109A84000221084804F08DF838B1074A9168416012
:109A9400127B027204F0BCF808BD044804F0E2F939
:109AA400FAE700BF94370020E0370020DC2D0020C7
:109AB4000E4B1B78CBB910B50D4B5C6804F5005404
:109AC400B4F1807F00D910BD04220121094804F0BB
:109AD40068F830B14460054A0121117004F098F827
:109AE400F1E7054804F0BEF9EDE77047F4370020CC
:109AF400E037002094370020CC2D002010B5044618
:109B040008B1A04710BD7846FDF7B8FCF9E700009E
:109B140008B501210C4804F0A3F820B902210A4831
:109B240004F09EF828B1094804F09CF9FFF7C0FF3F
:109B340008BD074A0023136053609360D360136128
:109B4400044A1370F2E700BF94370020FC2D002074
:109B5400E0370020B837002000B58DB00B4B1B7BDD
:109B6400012B0ED0094A926804928DF808300390B4
:109B740002238DF8043001A8FFF766F80DB05DF8F4
:109B840004FB024A9268013A0492EEE7E0370020AF
:109B940010B58CB00C4682B94B88012B20D1134BE5
:109BA4001B7833B16268124B5A60104B00221A7052
:109BB40016E07846FDF762FCF4E7032A12D12C2262
:109BC400002101A817F0A6FF11238DF80430039497
:109BD400084BDA6805921B69069301A8FFF734F86D
:109BE4000CB010BD7846FDF749FCE8E7F4370020D7
:109BF400E03700209437002000B583B001F034FF33
:109C04000021009101916B46144A154803F0BEFEF1
:109C1400009B6BB1019A5AB118681249886018798F
:109C2400087393420CD91B7953B900220A600AE0E5
:109C34000C4B00221A609A601A73FFF71FFF02E0B0
:109C44001268084B1A60074B1A685A60FFF730FF16
:109C540001F04EFF03B05DF804FB00BF699A0200F7
:109C640094370020E037002008B504F04FF9A0F540
:109C7400805008BD00B587B000230093019303937F
:109C8400049305930293FFF7EFFF009001230193E0
:109C9400064B03936946064804F099F810B907B0D7
:109CA4005DF804FB034804F0DDF8F8E7959B020037
:109CB40094370020EC2D002010B50B4B00241C60C1
:109CC4005C609C60DC601C6101F054F9074B5860D7
:109CD400074A9A60074ADA601C615C61064B1C7093
:109CE400FFF7C8FF10BD00BFE0370020BC370020DD
:109CF4002D9E020000879303F537002008B5084B1A
:109D04001B7803B108BD0748074B036000F060FEF1
:109D1400064801F0C7F8024B01221A70F2E700BFAF
:109D240090370020D4370020559F0200BC37002014
:109D340010B501F099FE164B1B7B0BBB144B9B7BA0
:109D44001BBB134B1A8A41F282639A4204D8114B0B
:109D54001B782BB1012300E001231BB9082410E078
:109D64000023FAE70A4B01221A7300241C829A6822
:109D740001329A60FFF782FE2046FFF7EDFE00E015
:109D8400082401F0B5FE204610BD0824F9E700BF01
:109D9400E0370020F537002010B501F065FE204BB8
:109DA4005B7B9BB11E4B9B7BF3B91D4B1A8A41F223
:109DB40082639A4204D81B4B1B782BB1012300E029
:109DC40001239BB1012302E00023FAE700231C4690
:109DD4000BB3134B00225A731B7B4BB1012B0ED0D8
:109DE4007846FDF74BFB16E00023F0E70023EEE78F
:109DF400FFF79EFF78B17846FDF740FB0BE0084B78
:109E040000201860586018731882FFF7A5FEFFF74A
:109E140035FEFFF74DFE01F06BFE204610BD00BF7E
:109E2400E0370020F537002008B5214B1B7B7BB1C0
:109E3400012B20D07846FDF721FB1D4A138A0133FC
:109E440013821B4B5B8A13B1013B194A538208BD31
:109E5400174B1A8A41F282639A4204D8154B1B7835
:109E64003BB1012300E00123002BE6D0FFF794FF70
:109E7400E7E70023F8E70E4B1B8A41F28262934224
:109E840004D80C4A127872B1012200E00122002A9F
:109E9400D3D042F2B012934207D9054B01225A7330
:109EA400FFF77AFFCDE70022F1E7FFF775FFC4E77C
:109EB400E0370020F537002010B5244B1B7B002B26
:109EC40035D10446214B5B8A2BBB1AB91F4B9B68C7
:109ED4008B4205D3FAB11D4B9B6801338B421AD2D6
:109EE4001A4B9B682A338B4223D3184B9B7B03BBAF
:109EF400164B996000221A605A601A8242F6065183
:109F040059825A731A73FFF7B9FDFFF7D1FD204642
:109F1400FFF722FE0DE062B10C4B9B6801338B42CC
:109F240007D10A4B01225A73FFF736FF01E0012BD8
:109F340000D010BD002AFCD1044B9B688B42F8D1A1
:109F4400024B01225A73FFF727FFF2E7E0370020A4
:109F54000378042B00D0704743681B78002BFAD099
:109F640010B58468027E437E012A14BF00220122B8
:109F7400416904F11000FFF79FFF10BD10B5184BA5
:109F84001A685B689A4226D20446154B1B7B012B48
:109F940014D0144B9A4213D2114B1A685B68403B9D
:109FA4009A4215D2EFF3108172B60D4A1368581C09
:109FB4001060236001B962B6002010BD0A4BE9E7C6
:109FC400074B01225A73FFF7E7FE0028EAD1E3E7C3
:109FD400FFF76EFDE6E7FFF76BFD0F20EDE700BF2F
:109FE400E0370020FFFF7F0000E0FF0008B538B134
:109FF4000D4B01229A730D4A13680133136008BD97
:10A004000A4B1B685BB1094A1368013B1360002BC0
:10A01400F5D1054B00229A73FFF7BEFEEFE77846B1
:10A02400FDF72CFAEFE700BFE03700208C37002063
:10A0340000B58DB0ADF808008DF81020039103230E
:10A044008DF8043001A8FEF7FFFD0DB05DF804FBA8
:10A05400014B9868704700BFE0370020054B1B7B1D
:10A06400012B02D0034B98687047024B9868013863
:10A07400704700BFE0370020044B9B68584010F045
:10A08400010F00D0013B1846704700BFE0370020A5
:10A09400014B187B704700BFE037002038B50B4BED
:10A0A4001B780BB1082038BD084B01221A70084DEB
:10A0B400A8602973FFF7E2FC0020FFF74DFD0024A0
:10A0C4002C606C60FFF7F4FC2046ECE7B837002006
:10A0D400E03700202DE9F041002624E02449BC2388
:10A0E40003FB04F3CA5A0132CA520221284602F081
:10A0F400ADFC01370221284602F078FC014679B113
:10A104001B4ABC2303FB0423D3F80880B8F1000FD7
:10A11400E4D0BC2303FB04F3D25A3046C047DDE746
:10A1240097B90136F6B2022E1FD83446BC2303FB7E
:10A1340006F308330E4D1D4404350221284602F06F
:10A1440055FC01460027DAE7284602F0E7FC082818
:10A15400E7D1074BBC2202FB0434A368002BE0D0F8
:10A164000022044930469847DBE70120BDE8F0812E
:10A1740000380020B823040008B508238373102393
:10A18400437300F11C0343610323037300F11803B9
:10A1940003610C3002F094FC08BD000008B503789C
:10A1A400012B06D0022B06D07846FDF767F9002074
:10A1B40002E0292000E0014808BD00BF084C01006E
:10A1C40008B50378012B07D0022B15D07846FDF78C
:10A1D40055F94FF4FA730AE08368591A21F003031E
:10A1E40003EB9103DB0003EB910303F5FA730748D8
:10A1F400984228BF184608BD8368591A090B044BB6
:10A2040003FB01F303F5FA73F1E700BF6085010076
:10A21400084C010038B5044601210C3002F0E6FB7D
:10A22400054678B1084BC4F89C300023C4F8A0302C
:10A234006168FFF7C5FFC4F8A800C4F8AC40012367
:10A2440084F8B830284638BD6DA3020010B5044622
:10A25400FFF7E0FF20B104F19C000DF0F9FF00B915
:10A2640010BD7846FDF70AF9FAE70000F8B505468F
:10A274000C46164617680378012B19D11249A1FB25
:10A28400043149098B00AC68E41BB4EB810F00D3A3
:10A294001C468CB1686827F00307E96822463944F4
:10A2A4003844FFF7A1FB58B933681C443460F8BD47
:10A2B4007846FDF7E3F8E1E77846FDF7DFF8E9E7EC
:10A2C4007846FDF7DBF8EFE77D0CCEC7F8B5064618
:10A2D4000C46154617680378022B17D1114BA3FBC4
:10A2E40004231B0C1A03B468E41BB4EB033F00D330
:10A2F40014467CB1706827F0030721463844FFF701
:10A304003FFB58B92B681C442C60F8BD7846FDF718
:10A31400B5F8E3E77846FDF7B1F8EBE77846FDF7E3
:10A32400ADF8EFE7EB0661C538B505460C461146B6
:10A334002378012B06D0022B0FD07846FDF79EF828
:10A34400002304E0021D2046FFF790FFA36868681D
:10A35400984214BF0020012038BD021D2046FFF79B
:10A36400B5FFA368F3E700002DE9F8430F46D1F8E1
:10A37400A850254B1B786BB90446A5F5FA7501F175
:10A384000C080121404602F031FB064648B14FF06B
:10A39400000924E00DF098FF002387F8B830BDE8E9
:10A3A400F8837846FDF76AF8F1E70DF08DFF012197
:10A3B400404602F04BFB00237B6087F8B830134B18
:10A3C400186801F0E9FB3846FFF740FFE7E7A4EB24
:10A3D40000093046FFF7E2FE4844A8420DD8A5EB39
:10A3E400090231463846FFF79FFF0028DDD101F00E
:10A3F40013FAB0EB0409ECD5E9E70DF065FF384634
:10A40400FFF724FFCBE700BFFC370020F83700201C
:10A4140010B5084801F0A0FB074B1860002406E0C3
:10A42400064BBC2000FB0430FFF7A6FE0134022CCF
:10A43400F6D910BDD9A00200F8370020003800205A
:10A4440038B504460D46022805D80548BC2303FB4D
:10A454000404A56038BD7846FDF710F8F5E700BFA1
:10A46400003800202DE9F84305460C46174602281B
:10A4740016D8CCB12378012B1AD0022B3ED16368B5
:10A48400C3F30B03002B31D1A368C3F30B03002BDD
:10A4940030D1A368002B34D17846FCF7EFFF30E0CD
:10A4A4007846FCF7EBFFE4E77846FCF7E7FFE1E7E3
:10A4B400636813F0030F0DD1E36813F0030F0DD19C
:10A4C400A36813F0030F0DD1A368D3B97846FCF742
:10A4D400D5FF16E07846FCF7D1FFEDE77846FCF7A8
:10A4E400CDFFEDE77846FCF7C9FFEDE77846FCF7CA
:10A4F400C5FFC9E77846FCF7C1FFCAE77846FCF711
:10A50400BDFFEFF3108872B6BC2606FB05F606F114
:10A5140008032A4E1E4404360021304602F066FA2F
:10A52400814678B30021304602F090FA20686168D1
:10A53400A268E368C9F80000C9F80410C9F8082043
:10A54400C9F80C302FB11D4ABC2303FB05235B88DB
:10A554003B801A4ABC2303FB05235A8801325A80E4
:10A5640093F8B83083B9164B1B7813B10024A14675
:10A574000CE0124BBC2000FB0530FFF74BFE81467C
:10A58400002403E0042401E00024A146B8F1000FF4
:10A5940000D162B6B9F1000F09D0BC2000FB05F070
:10A5A4009830064D284404300DF052FE10B9204670
:10A5B400BDE8F8837846FCF761FFF8E7003800202F
:10A5C400FC37002038B50446EFF3108572B610B995
:10A5D400164B1B6873B18CB1144A136801331360B2
:10A5E400124B1B68003B18BF0123114A137005B9B5
:10A5F40062B638BD7846FCF741FFECE70B4B1C68AC
:10A60400013C1C6034B1EBE7BC2000FB0420FFF7E5
:10A614001DFE0134022CE3D8064ABC2303FB0423A9
:10A6240093F8B830002BF4D1EEE700BF343A0020A1
:10A63400FC3700200038002018B1830B024AD05C9C
:10A6440070470020704700BFC823040012DF704722
:10A6540000B583B01378A3B1022B14D1072110F8ED
:10A66400013C163B152B31D8DFE803F0593030306C
:10A674003030303030303030303030303030302ED8
:10A684000F3A517DEBE70021E9E7022901D00729C0
:10A694001CD110F8021C013901F0CCFEB0B1264BDC
:10A6A4001B6813F0400F11D0244B1B68012B0DDDE8
:10A6B400234BD3F804350190224A00929322224975
:10A6C400022002F011FC01E0022902D003B05DF87F
:10A6D40004FB10F8021C0139C9B213F06DF9F5E757
:10A6E4000229F3D110F8021C0139C9B203F0BEFEED
:10A6F4000028EBD0104B1B6813F0400FE6D00F4B33
:10A704001B68012BE2DD0E4BD3F8043501900F4A90
:10A714000092A6220C49022002F0E6FBD6E701884B
:10A724004FF6E4639942D1D110F8021C0339023088
:10A73400FCF7F2FDCAE700BF1C2E0020182E0020F3
:10A744000010014008240400FC2304003424040005
:10A7540070B58AB00EF02EFB48B3064600238DF880
:10A76400103005AC05460FCD0FC42B682360727DF5
:10A77400052A04D9337D03F00F03072B1ED1174B91
:10A784001A688AB104AB0393337DC3F303038DF8D2
:10A794000430737D062B1BD9063B8DF8053006F17A
:10A7A4001D03029301A8904730460EF0E3FA0EF021
:10A7B4001DFB80F00100C0B20AB070BD307D04AB57
:10A7C400063A06F11D0100F00F000DF03BF8D6E744
:10A7D40000238DF805300293E4E700BF3C3A0020E3
:10A7E4000B4B1B78032B00D0704700B58DB0084B82
:10A7F40004221A702C22002101A817F08BF91C23C3
:10A804008DF8043001A8FEF71FFA0DB05DF804FBC3
:10A81400383A002070B582B0354B1B78002B5CD1E0
:10A82400044600285DD0067A0F2E01D0062E5AD198
:10A8340005F040FEE06870B1FCF732FE0DF1070050
:10A84400FFF704FF0546002848D19DF80730012B87
:10A8540004D0022542E0FCF731FEEFE7FCF750FE9E
:10A8640000F00CFB304601F0ADF8E07800F030F970
:10A8740000F09EFE0DF06EFC1E480EF053FB0DF032
:10A8840085F9FFF7C5FD04F0E9FE00F0F1FC05F0E1
:10A89400D1FD05F095FB204601F0DAFCFDF7F2FE50
:10A8A40004F0DEF9FCF738FD08B106281DD1124882
:10A8B4000CF0AAFF2A200DF03BF82B200DF038F8FD
:10A8C40029200DF035F816200DF032F80B4B00223C
:10A8D4001A60074B01221A7000E00825284602B0CE
:10A8E40070BD0E25FAE70725F8E70546F6E700BF31
:10A8F400383A002055A702000C2E00203C3A0020D4
:10A9040010B582B01E4B1B78012B0DD05AB282B306
:10A91400033BDBB2012B2ED80DF08AFC044658BB56
:10A92400174B02221A7027E00EF002FA01F0A2FC83
:10A93400FDF7EAFEFCF7F0FC0446B8B1062815D092
:10A94400104B1B6813F4804F16D00F4B1B68012B60
:10A9540012DD0E4BD3F8043501900D4A009240F2FB
:10A96400A7120C49022002F0BFFA05E001F056F8E4
:10A97400D2E7082400E00824204602B010BD00BF3E
:10A98400383A00201C2E0020182E00200010014010
:10A9940060240400FC23040008B5094B1B78022B37
:10A9A40001D0082008BD064B03221A7005480DF09B
:10A9B400F3FB0028F6D07846FCF760FD0020F1E7B1
:10A9C400383A0020E5A7020008B5FDF7A1FE08BD4E
:10A9D40008B5FEF761F908BD08B5FEF76DF908BDC5
:10A9E40008B500F0ABFD002008BD08B507F062F81B
:10A9F40008BD0000064A136801331360B3F1704FB9
:10AA040002D0034B18687047134601221A60F8E716
:10AA1400403A002010B5044618B100232360636057
:10AA240010BD7846FCF72AFDF7E738B50C46054615
:10AA340068B184B100236360EFF3108372B62A68AF
:10AA44006AB16A6854606C6003B962B638BD78460E
:10AA5400FCF714FDEDE77846FCF710FDEAE72C60FF
:10AA6400F1E710B5044658B1EFF3108372B62068CD
:10AA740008B142682260226832B103B962B610BDDF
:10AA84007846FCF7FBFCEFE76260F6E710B5044696
:10AA940008B1206810BD7846FCF7F0FCF9E735DF13
:10AAA4007047000008B54FF0FF30FFF7F8FFBFF321
:10AAB4004F8F0549CA6802F4E062044B1343CB602C
:10AAC400BFF34F8F00BFFDE700ED00E00400FA057F
:10AAD400072814D8DFE800F0080C1504110F0A0643
:10AAE4006420704714207047FA2070471E20704776
:10AAF4004FF4FA707047322070474B207047FA20A9
:10AB04007047962070470000024B5868103840B2D6
:10AB1400704700BF00ED00E0034600280FDB5B1127
:10AB2400084A52F82330424200F01F0002F01F028C
:10AB340058BF504223FA00F000F00100704700F1C2
:10AB44001F03ECE700E100E046DF7047F8B5044678
:10AB54000D464B1EDBB2012B09D800232361636130
:10AB6400A361E3612046FFF7EFFF012016E078467A
:10AB7400FCF784FCF1E7CA5CCE185200D2B27678B6
:10AB840042EAD612CA5401339BB20E2BF3D9CB7BC3
:10AB94005B00CB73002F08DB0130C0B2A8420BD896
:10ABA400214611F9207F0023EFE794F82F3083F03A
:10ABB400870384F82F30EFE7F8BD2DE9F04190B01A
:10ABC40084460C4696461F4602F10F084FEA2816A3
:10ABD40004AD0068DCF80410DCF80820DCF80C3064
:10ABE4000FC50EF00F055FEA181302D07DB10023E4
:10ABF40000E00023984663B1012104A8FFF7A6FFF3
:10AC0400B8F1000F1AD0701E000110230EE00123CA
:10AC1400F0E70221F1E7013B9BB22218D25C10A9B4
:10AC2400194411F8101C4A400DF80320002BF2D1EE
:10AC340000250C950D950E950F9533E0711EADB260
:10AC44002A4604EB0111684616F03BFF80230DF8F9
:10AC540005306B1C03E000220DF8032001330F2B99
:10AC6400F9DD10230AE0013B9BB21DF8032010A973
:10AC7400194411F8101C4A400DF80320002BF2D19E
:10AC8400D6E7013A92B210AB134413F8100C6318D0
:10AC94009B5C584008AB9854002AF2D104A8FFF7F3
:10ACA40053FF0135731EAB4202DD29011022F3E785
:10ACB40010230AE0013B9BB210AAD11811F8402CD2
:10ACC40011F8101C4A4008A9CA54002BF2D104A858
:10ACD400FFF73AFF0CAC0FCC38607960BA60FB60C8
:10ACE40010B0BDE8F081000010B50446134B1B689A
:10ACF40093B14168114B1B685B68CB1A002B0BDBCB
:10AD04000E4B1B6818465B691BB15A68521A002A1D
:10AD1400F8DB6361446103E0084B1A6862611C60FC
:10AD2400064A93889BB201339BB2938013B10123EB
:10AD3400237010BD7846FCF7A1FBF8E7483A0020E1
:10AD440038B505461CE07846FCF798FB6369204A51
:10AD540013600023636193889BB2591E89B291806A
:10AD6400F3B1A36803B302232370A36821692846BF
:10AD7400984700F0FFF805462378DBB2022B17D082
:10AD8400134B1B681BB3124B1B685B685B1B642B68
:10AD94001DD50F4B1C682378DBB2012BD6D0D2E72C
:10ADA4007846FCF76BFBDCE77846FCF767FBDAE7F1
:10ADB400E26812B900232370E2E763681344636016
:10ADC4005B1B642BF9D42046FFF78EFFD8E738BD10
:10ADD400483A002010B50446144B1B68834207D040
:10ADE400124B1B68D3B15A69A2420ED01346F9E73D
:10ADF40043690E4A136093889BB2591E89B29180AD
:10AE040063B97846FCF73AFB08E062695A6107497E
:10AE14008B889BB25A1E92B28A8013B1002323708E
:10AE240010BD7846FCF72AFBF8E700BF483A00203B
:10AE340008B5064B1B6833B1044B1B6804495868BA
:10AE440000F046F908BD00F0A1F9FBE7483A0020FC
:10AE540071AE020008B500F08DF8FFF771FF00F045
:10AE640089F8FFF7E5FF012008BD000008B5024B93
:10AE7400186800F091FE08BD443A002008B5064B5E
:10AE840000221A605A60054800F066FE044B186000
:10AE940000F063F808BD00BF483A002059AE020034
:10AEA400443A002010B5044600F04AFF80B19CB13A
:10AEB400A368ABB12378DBB2012B15D00023636107
:10AEC4002046FFF711FF00F055F8FFF7B1FF10BD62
:10AED4007846FCF7D3FAEAE77846FCF7CFFAE7E7D7
:10AEE4007846FCF7CBFAE5E77846FCF7C7FAE5E7DE
:10AEF40010B5044600F024FF50B16CB12046FFF7B2
:10AF040069FF0023636100F035F8FFF791FF10BD7E
:10AF14007846FCF7B3FAF0E77846FCF7AFFAEDE7CA
:10AF240038B504460D4600F00BFF70B18CB12046D5
:10AF3400FFF750FF0023636165602046FFF7D4FEEE
:10AF440000F018F8FFF774FF38BD7846FCF796FA5E
:10AF5400ECE77846FCF792FAE9E708B516F072FCDC
:10AF640000B108BD16F0ECFB0028FAD07846FCF7D7
:10AF740085FAF6E770B4EFF3108172B6184B1A68CD
:10AF8400184BD3F80455D3F80431012B22D001B95E
:10AF940062B645EA026500266B01EA0E5B1B62EBB2
:10AFA4000602510241EAD3515802431941EB06000B
:10AFB400810141EA93619A01D31A61EB00005B19A4
:10AFC40046EB000013F580437041DB0B43EA40403D
:10AFD40070BC7047034BD3F804550132D7E700BF68
:10AFE400503A00200010014010B50A4B4FF40032D3
:10AFF400C3F84823C3F80823074B1B682BB1064B3F
:10B004001C68FFF7B7FFA04710BD7846FCF736FA77
:10B01400F5E700BF001001405C3A0020EFF3108117
:10B0240072B6264B0022C3F80421254A1368013363
:10B03400136001B962B6234B1B68002B3DD0214B32
:10B044001A68013A1A601B68002B36D103F1804359
:10B0540003F58833D3F804251B4B1B689A421ED290
:10B06400EFF3108272B6154BD3F804350133164949
:10B0740009688B4210D3114BD3F8043502330F49BE
:10B08400C1F8443502B962B60C4B4FF40032C3F830
:10B094004423C3F8042370470B4B1B68EFE710B538
:10B0A4000A4B1B682BB1094B1C68FFF763FFA047D1
:10B0B40010BD7846FCF7E2F9F5E77047001001404F
:10B0C400503A0020543A0020583A00205C3A0020BC
:10B0D40030B583B00446002301930D46002936D0D1
:10B0E400244B1D60FFF746FF031B002B33DB0023BB
:10B0F400590CD803204C214A002300194FF00004B6
:10B1040044EB010116F0A4FBEFF31083019372B634
:10B114001B4BD3F80435022838BF0220C3F1FF12B9
:10B1240002F57F42824218D30344154AC2F84435DB
:10B134004FF40033C2F84433C2F80433114A1460A4
:10B14400114A1460019B03B962B603B030BD78465E
:10B15400FCF794F9C4E7231ACAE7034403F17F43D5
:10B1640001331A0E013207490A6023F07F43064A6D
:10B174001360E7E75C3A002020A1070040420F007B
:10B1840000100140543A0020583A0020074B4FF475
:10B194000032C3F84823C3F808230023044A136089
:10B1A400044A1360044A1360704700BF0010014052
:10B1B400543A0020583A00205C3A002030DF7047AF
:10B1C40031DF704710B4034602684068A2EB701286
:10B1D4009C6880EAF4301860D9680C445C601144BF
:10B1E40099601044D8605DF8044B704770B582B024
:10B1F4000D46064608B100240BE07846FCF73EF9FC
:10B20400F9E79DF807103019FFF7DAFF9DF80730CA
:10B214001C44A5420DD90DF10700FFF7CFFF9DF89F
:10B224000730002BF7D02A1B9342EAD98DF8072068
:10B23400E7E702B070BD000030B583B005460024D6
:10B24400019404210DEB0100FFF7D0FF074B2B60A5
:10B25400019B6B60AB60EB6003E02846FFF7B2FF35
:10B264000134132CF9D903B030BD00BFED5EEAF10F
:10B27400704748DF704749DF70474ADF7047000076
:10B28400044B01225A7143F2B0629A6043F6982249
:10B29400DA607047AC3A0020094B03221A74094A59
:10B2A4005A611A6840F6D8639A4204D9054B43F2AE
:10B2B400B0629A607047034B40F6D8629A60704758
:10B2C4008C3A0020AC3A002008B50F4B1B78022BB7
:10B2D40012D0032B08D0012B03D07846FCF7CEF80C
:10B2E4000EE0022303740BE0084B00225A71084954
:10B2F40099600849D960827103230374034B436145
:10B30400014B00221A7008BDBD3A0020AC3A00205F
:10B31400A0860100FF1FA10738B504460025057467
:10B32400012343710E4A13680133136000F0D2FA0B
:10B334000DF044F823680B4A1168283101FB03F12E
:10B34400094AA2FB0121A3EB9141084A7839284616
:10B3540000F03CFA00B938BD7846FCF78FF8FAE7FC
:10B36400C03A0020A83A002083DE1B439DB20200AD
:10B3740010B5044600238360C36003680D4A9268D5
:10B384000260817991B10121017403B90A4B991AC0
:10B394006161B1F57A7F01D39A4202D94FF47A738D
:10B3A4006361FFF76DFF0123A37110BDFFF7B4FFC5
:10B3B400F7E700BFAC3A00208096980010B50C4621
:10B3C40031B1C3680133C360426903681344036045
:10B3D4008368013383600122027442695208426126
:10B3E400012B0DD0022B19D042690368134417496D
:10B3F4008B4222D840F6D7639A4221D800231DE01D
:10B40400B2F5FA7F05D040F6D8639A42ECD843618E
:10B41400EAE7002CF7D100234361E5E7C368022B78
:10B4240006D0012BE0D1002CDED100234361DBE701
:10B434000268064B9B1A4361D6E7002313B110BD83
:10B444000123FBE7FFF768FFF9E700BF8096980048
:10B4540043791BB90D4B00221A70704710B504468E
:10B464000CF0C8FF23680A4A1068283003FB00F078
:10B47400084AA2FB0020A3EB9040783800F05AFA67
:10B4840000236371014B00221A7010BDBC3A0020E6
:10B49400A83A002083DE1B4308B5254B01221A710C
:10B4A400244B1B7813B1244B1B781BB3204B002275
:10B4B4001A7404281AD8DFE800F00314110C0700EA
:10B4C4001B48FFF755FF1CE001211948FFF776FFE1
:10B4D40017E000211648FFF771FF12E00CF01AFF85
:10B4E4000FE000F0B9F90CF04FFF0AE07846FBF7E3
:10B4F400C5FF06E000F090F90D4B18601846FFF701
:10B50400E3FE0B4B1B7C023BDBB2012B08D9084B3F
:10B514001B7C022B08D0064800230371103008BDA1
:10B524000348FFF795FFF2E7014B01221A76F2E791
:10B534008C3A0020BD3A0020BC3A002008B50438FB
:10B54400042814D8DFE800F0182614030E00164B64
:10B554001B7E012B0BD1FFF78EFE40B17846FBF723
:10B564008DFF04E0104B00221A760CF067FF08BD33
:10B574007846FBF783FFFAE7FFF782FE0B4840F6B5
:10B58400D8638360FFF779FE0028F0D07846FBF794
:10B5940075FFECE70548FFF770FE0028E7D0784612
:10B5A400FBF76CFFE3E700BF8C3A0020AC3A0020C5
:10B5B40010B40E4A0023137013710121517143F228
:10B5C400B064946043F69824D460094A1060094A30
:10B5D4001370094A1370094A1360094A13715371AD
:10B5E4001360137691715DF8044B7047AC3A0020F8
:10B5F400A83A0020BC3A0020BD3A0020C03A0020FE
:10B604008C3A002008B5104B1B7E012B08D0022B6E
:10B6140017D00BB1002008BD0C48FFF72AFE40B933
:10B624000B48FFF72AFE40B9074B02221A76002086
:10B63400F1E77846FBF722FFF2E77846FBF71EFFB7
:10B64400F2E71120E7E700BF8C3A00209DB4020026
:10B65400AC3A00200B4B1B7C023BDBB2012B0BD919
:10B66400094B1B78012B09D0022B09D0032B01D0E5
:10B674000020704701207047012070470120704767
:10B68400012070478C3A0020BD3A0020014B186815
:10B69400704700BF8C3A00200D4B5B790BB900203A
:10B6A400704710B50A4B1C680A4B1B68283303FB10
:10B6B40004F3094AA2FB0323A4EB9344783C00F06F
:10B6C400ABF80346201A00D410BD181BFCE700BFDA
:10B6D4008C3A0020A83A002083DE1B43014B5879A2
:10B6E400704700BF8C3A0020014B1879704700BFA7
:10B6F4008C3A0020024B187E003818BF0120704796
:10B704008C3A0020EFF3108372B6054A527922B1C5
:10B71400044A4FF48071C2F8001103B962B670474D
:10B724008C3A002000E100E008B5054B1B7E022B9B
:10B7340000D008BD034B01221A70FFF7E3FFF8E7BE
:10B744008C3A0020BD3A002008B5074B1B7E022B23
:10B7540000D008BD012804D0044A1370FFF7D2FFBB
:10B76400F7E70323F8E700BF8C3A0020BD3A002036
:10B7740008B5094B1B782BB148B9084B1B7813B19A
:10B78400012300E00023044A107013B908BD00230C
:10B79400F9E7FFF7B7FFF9E7BC3A0020BD3A00200C
:10B7A40010B4094B00F15002002443F8224000F188
:10B7B40010040122A240C3F8042300F5A87043F842
:10B7C40020105DF8044B704700800040022817D811
:10B7D40010B5EFF310840C4B1C6072B60B4B43F89E
:10B7E40020200B4B002243F820200A4B1B7823B95E
:10B7F400054B186830B962B605E0FFF7D1FFF7E7EB
:10B8040007207047002010BDD43A0020C43A00201D
:10B81400E03A0020D03A0020EFF310820A4B1A607D
:10B8240072B60A4B1B7863B1094B0022C3F84C2152
:10B834000122DA64D3F84C05034B1B6803B962B6E2
:10B844007047044B1868F7E7D43A0020D03A002038
:10B8540000800040D83A00202DE9F041002411E096
:10B864000027174B43F82470012303FA05F5154EFE
:10B87400C6F80853FFF7D0FFC04704F1500346F859
:10B8840023700134022C18D804F150030D4A52F8E5
:10B894002330002BF5D0D2F8043304F11005EB402B
:10B8A40013F0010FEDD0064B53F82480B8F1000FCC
:10B8B400D6D17846FBF7E2FDD2E7BDE8F08100BFC0
:10B8C400C43A002000800040014B1B6818447047B4
:10B8D400DC3A002010B500230CE0114A03F5A871EE
:10B8E400002042F8210003F1500142F8210052F8EF
:10B8F40021200133022BF0D90A4B1B681BB90A4BD8
:10B904004FF480721A60094B01221A70FFF732FB60
:10B914000446FFF781FF241A054B1C6010BD00BFCD
:10B9240000800040D43A002000E100E0D03A00203A
:10B93400DC3A0020002307E000220C4941F82320D0
:10B944000B4941F823200133022BF5D9094B186028
:10B95400094B00221A70094B4FF0FF32C3F8082339
:10B96400074B4FF48072C3F880217047C43A00201B
:10B97400E03A0020D83A0020D03A0020008000406D
:10B9840000E100E008B503783BB1012B04D1436822
:10B9940013B1C1688068984708BD4368002BFBD089
:10B9A40080689847F8E70000044B1B780F2B04D0FD
:10B9B400034B4FF48022C3F800217047343C00202D
:10B9C40000E100E010B5104C20701048104B0360EB
:10B9D400102343608360FDF78DFF0E48FFF71AF8CC
:10B9E40023780F2B0FD0072B0AD8EC221A4112F020
:10B9F400010F05D05B01DBB2074A82F8123302E083
:10BA04007846FBF73BFD10BD343C0020EC3A0020A7
:10BA1400003B0020383C002000E100E008B50F4B5B
:10BA24001B780F2B19D00E4B93F812335A09EC23C1
:10BA3400134113F0010F0DD00A4B9B682BB1094A37
:10BA4400136843F48023136007E0054B4FF480220E
:10BA54001A6002E07846FBF711FD08BD343C002073
:10BA640000E100E08C57002038B5EFF3108472B683
:10BA7400194A1368591C116003BB184B1B780F2B10
:10BA84001CD0EFF3108272B6154B9B68E3B91449CE
:10BA940001238B60134BD3F88000134D28400860BA
:10BAA400C3F88050D3F8840048604FF0FF31C3F8E6
:10BAB40084100E4B0021197002B962B6064B1B6844
:10BAC40033B104B962B638BD084B01211970F3E7EC
